:020000040804EE
:10000000008001209D230408A5140408A7140408F7
:10001000A9140408AB140408AD140408000000007F
:10002000000000000000000000000000AF14040801
:10003000B114040800000000B3140408B514040847
:10004000ED230408ED230408ED230408ED23040840
:10005000ED230408ED230408ED230408ED23040830
:10006000ED230408ED230408ED230408ED23040820
:10007000ED230408ED230408ED230408ED23040810
:10008000ED230408ED230408ED230408000000001C
:10009000000000000000000000000000ED23040844
:1000A000ED230408ED230408ED230408ED230408E0
:1000B000ED230408ED230408ED230408ED230408D0
:1000C000ED230408ED230408ED230408ED230408C0
:1000D000ED230408ED230408ED23040800000000CC
:1000E000ED230408ED230408ED23040800000000BC
:1000F000000000000000000000000000ED230408E4
:1001000000000000ED230408ED230408ED2304089B
:1001100000000000000000000000000000000000DF
:10012000ED230408ED230408ED230408ED2304085F
:10013000ED230408000000000000000000000000A3
:10014000000000000000000000000000ED23040893
:10015000ED230408ED230408ED230408ED2304082F
:10016000ED230408ED230408000000000000000057
:10017000000000000000000000000000000000007F
:1001800000000000ED230408000000000000000053
:04019000ED2304084F
:100194000348044B834202D0034B03B11847704712
:1001A4002400002024000020000000000548064B25
:1001B4001B1AD90F01EBA301491002D0034B03B161
:1001C400184770472400002024000020000000008D
:1001D40010B5064C237843B9FFF7DAFF044B13B18B
:1001E4000448AFF300800123237010BD24000020D5
:1001F40000000000F023040808B5044B1BB10449B7
:100204000448AFF30080BDE80840CFE700000000D9
:1002140028000020F023040870B50F4B0F4DAB42AB
:10022400A3EB050607D0B610002455F8043B0134AF
:100234009847A642F9D802F0D9F8094D094B5E1B3C
:10024400AB424FEAA60606D0002455F8043B01341D
:100254009847A642F9D870BDCCCC0408CCCC04088D
:10026400CCCC0408D0CC0408830730B547D0541E46
:10027400002A3ED0CAB2034601E0013C39D303F858
:10028400012B9D07F9D1032C2CD9CDB205EB052503
:100294000F2C05EB054535D9A4F1100222F00F0C03
:1002A40003F1100EE6444FEA121C1A46C2E9005547
:1002B400C2E9025510327245F8D10CF1010214F072
:1002C4000C0F03EB021204F00F0C13D0ACF1040377
:1002D40023F003030433134442F8045B9342FBD139
:1002E4000CF003042CB1C9B21C4403F8011BA34253
:1002F400FBD130BD64461346002CF4D1F9E7034624
:100304001446C0E71A46A446E0E700BF53B94AB909
:10031400002908BF00281CBF4FF0FF314FF0FF3009
:1003240000F06AB9ADF1080C6DE904CE00F006F8EE
:10033400DDF804E0DDE9022304B070472DE9F0475D
:10034400089D0E4604460F46002B4AD194468C4520
:10035400B2FA82F260D942B1C2F12003974020FA86
:1003640003F30CFA02FC1F4394404FEA1C4E1FFA9D
:100374008CF6B7FBFEF1230C0EFB117743EA07431F
:1003840001FB06F098420AD91CEB030301F1FF3785
:1003940080F01581984240F21281023963441B1A9D
:1003A400A4B2B3FBFEF00EFB103344EA034400FB9B
:1003B40006F6A6420AD91CEB040400F1FF3380F0D0
:1003C4000081A64240F2FD806444023840EA0140C4
:1003D400A41B00211DB1D4400023C5E90043BDE89E
:1003E400F0878B4205D90DB1C5E90001002108460B
:1003F400F5E7B3FA83F1002946D1B34202D382422E
:1004040000F2F580841A66EB030201201746002DE2
:10041400E5D0C5E90047E2E7002A40F09380A1EB6C
:100424000C034FEA1C471FFA8CFE0121B3FBF7F6BD
:1004340007FB1630230C43EA00430EFB06F09842F8
:1004440008D91CEB030306F1FF3802D2984200F2EC
:10045400D08046461B1AA4B2B3FBF7F007FB103357
:1004640044EA03440EFB00FEA64508D91CEB040431
:1004740000F1FF3302D2A64500F2B6801846A4EB81
:100484000E0440EA0640A5E7C1F120078B4022FA9A
:1004940007FC4CEA030C06FA01FE20FA07F426FADC
:1004A40007F344EA0E0400FA01F84FEA1C404FEA4D
:1004B4001449B3FBF0FE1FFA8CF600FB1E3349EA25
:1004C40003430EFB06F9994502FA01F20BD91CEB22
:1004D40003030EF1FF3A80F08580994540F2828053
:1004E400AEF1020E6344A3EB0909A4B2B9FBF0F325
:1004F40000FB139944EA094403FB06F6A64208D913
:100504001CEB040403F1FF3068D2A64266D9023B17
:10051400644443EA0E40A41BA0FB02E6B4427346C3
:10052400B14652D34FD05DB1B8EB030264EB09047A
:1005340004FA07F722FA01F31F43CC40C5E900741B
:1005440000214CE7C2F1200120FA01F30CFA02FC6D
:1005540026FA01F1964033434FEA1C471FFA8CFEFA
:10056400B1FBF7F007FB1016190C41EA064100FB3A
:100574000EF68E4204FA02F408D91CEB010100F1D4
:10058400FF382DD28E422BD902386144891B9BB28D
:10059400B1FBF7F607FB161143EA014306FB0EF124
:1005A400994208D91CEB030306F1FF3814D299428F
:1005B40012D9023E63445B1A46EA004136E73946E3
:1005C400EDE6184602E7F045ADD2BEEB020366EB5A
:1005D4000C060138B146A6E74646ECE7034698E721
:1005E4004046D3E7D6467EE76444023847E70846E8
:1005F4000DE7023E63442DE7704700BF72B6FEE785
:1006040000B595B03022002108A8FFF72DFE002385
:10061400039304930593069307930193194A116C6A
:1006240041F080511164126C02F080520192019ADF
:10063400029315490A6822F4404242F400420A60D7
:100644000A6802F440420292029A022208920122AB
:100654000B9210220C920E9308A800F049FF68B97F
:100664000F2303930021049105910691079103A898
:1006740001F08EF920B915B05DF804FBFFF7BEFF59
:10068400FFF7BCFF003802400070004008B501F0DD
:10069400A9FBFFF7B5FF01F0EFFB01F03BFC0122E2
:1006A40011460F4801F008FB00F018F94FF47840A8
:1006B40000F0E6F84FF47A7001F0C0FB4FF4FC60F0
:1006C40000F0DEF84FF47A7001F0B8FB1F2000F060
:1006D400D7F84FF47A7001F0B1FB00F061FDFEE74A
:1006E4000004024010B582B08DF807000C4C0022C3
:1006F4001021204601F0E0FA00222021204601F0DA
:10070400DBFA4FF0FF3301220DF10701054801F038
:1007140060FD01221021204601F0CEFA02B010BD86
:10072400000802404400002010B582B08DF8070094
:100734000C4C00221021204601F0BEFA0122202197
:10074400204601F0B9FA4FF0FF3301220DF1070101
:10075400054801F03EFD01221021204601F0ACFACB
:1007640002B010BD000802404400002070B50646E7
:100774000D46114C00221021204601F09DFA012261
:100784002021204601F098FA0EE04FF6FF74AC42A7
:1007940028BF2C46A4B24FF0FF3322463146074807
:1007A40001F017FD26442D1B002DEED1012210214E
:1007B400014801F081FA70BD0008024044000020A5
:1007C4002DE9F04182B006460D4617461C46DFF877
:1007D400748000221021404601F06EFA2135ADB23A
:1007E4002134A4B22A20FFF77DFF330A8DF80430A8
:1007F4008DF805603B0A8DF806308DF807700421EA
:100804000DEB0100FFF7B2FF2B20FFF76BFF2B0A64
:100814008DF804308DF80550230A8DF806308DF8D4
:10082400074004210DEB0100FFF7A0FF2C20FFF788
:1008340059FF01221021404601F03EFA02B0BDE802
:10084400F08100BF0008024010B504463620FFF7CF
:1008540049FF032C06D8DFE804F002060A0EC02084
:10086400FFF762FF10BDA020FFF75EFFFAE700204C
:10087400FFF75AFFF6E76020FFF756FFF2E70000A4
:1008840070B582B00546AB2340F23F120021084602
:10089400FFF796FF002210210F4801F00DFA002601
:1008A4000EE02B0A8DF804308DF80550022101A8C2
:1008B400FFF75CFF0134A4B2AB2CF2D90136B6B217
:1008C400B6F5A07F01D20024F6E7012210210248E8
:1008D40001F0F2F902B070BD0008024010B584B016
:1008E4000A2001F0ABFA454C00220221204601F017
:1008F400E3F90A2001F0A2FA01220221204601F0C4
:10090400DBF9142001F09AFA3A20FFF7EBFE5520A8
:10091400FFF70AFFB220FFF7E5FE394B93E8030027
:1009240000908DF8041005216846FFF71FFF012091
:10093400FFF78AFFB720FFF7D5FE3520FFF7F4FE57
:10094400BB20FFF7CFFE1920FFF7EEFEC020FFF714
:10095400C9FE2C20FFF7E8FEC220FFF7C3FE0120EA
:10096400FFF7E2FEC320FFF7BDFE1220FFF7DCFE17
:10097400C420FFF7B7FE2020FFF7D6FEC620FFF7FE
:10098400B1FE0F20FFF7D0FED020FFF7ABFEA4206E
:10099400FFF7CAFEA120FFF7C7FEE020FFF7A2FE83
:1009A400184BEC460FCBACE80700ACF800300E2136
:1009B4006846FFF7DBFEE120FFF794FE124BEC469E
:1009C4000FCBACE80700ACF800300E216846FFF707
:1009D400CDFE2120FFF786FE1120FFF783FE1320B2
:1009E400FFF780FE2920FFF77DFE322001F026FA72
:1009F4000020FFF745FF04B010BD00BF0004024013
:100A0400082404081024040820240408B0F5A07F56
:100A14001FD210B582B01446AB2901D902B010BD63
:100A24000B460246FFF7CCFE230A8DF804308DF8FE
:100A34000540084C00221021204601F03DF9022116
:100A440001A8FFF793FE01221021204601F034F99A
:100A5400E4E77047000802402DE9F04F83B08B466D
:100A640015461E46BDF830805A1A82EAE279A9EB8F
:100A7400E279291A81EAE17AAAEBE17AD14504DC28
:100A84002E461D465B4683461846B34505D82B467D
:100A94000546184633465E469B46ABEB0604A3B2B6
:100AA4000093471B002FB8BF7F42C4F3C03303FA3F
:100AB40084F46410854220D34FF0FF3301930BE09C
:100AC400424629463046FFF7A1FFE41BA3B224B2F5
:100AD400002C0BDB0136B6B25E4511D8D145EFDDF3
:100AE400424631462846FFF791FFEEE7019A154446
:100AF400ADB2009A13441CB2ECE701230193EBE777
:100B040003B0BDE8F08F00002DE9F04383B0074641
:100B14000D4614461E46BDF82880DFF85C9000227E
:100B24001021484601F0C8F8CDF800802B46224633
:100B340029463846FFF790FFCDF8008033463A4601
:100B440029463846FFF788FFCDF800803346224611
:100B540031463846FFF780FFCDF800803346224601
:100B640029462046FFF778FF01221021484601F06C
:100B7400A3F803B0BDE8F083000802402DE9F04F6C
:100B840087B083468A4614461E46C2F10109C2EB69
:100B9400C2335B001BB2059313B2019300221021F0
:100BA400494801F089F804EB0A01324689B25846F3
:100BB400FFF72CFFAAEB0401324689B25846FFF72F
:100BC40025FF04EB0B003246514680B2FFF71EFFAF
:100BD400ABEB04003246514680B2FFF717FF002307
:100BE4000293012303935EE0019B013B1BB201933B
:100BF400059B02331AB2059219FA83F30FFA83F9AB
:100C0400029B01339DB21BB20293039B02331AB2BF
:100C1400039219FA83F30FFA83F905EB0B039BB2E2
:100C2400BDF8044004EB0A081FFA88F8324641462E
:100C340004931846FFF7EAFEABEB0507BFB2324652
:100C440041463846FFF7E2FEAAEB04081FFA88F88B
:100C5400324641460498FFF7D9FE324641463846AB
:100C6400FFF7D4FE04EB0B07BFB205EB0A081FFA2B
:100C740088F8324641463846FFF7C8FEABEB040419
:100C8400A4B2324641462046FFF7C0FEAAEB050552
:100C9400ADB2324629463846FFF7B8FE32462946F9
:100CA4002046FFF7B3FE029B019A934203DAB9F19F
:100CB400000F99DAA4E701221021034800F0FCFF99
:100CC40007B0BDE8F08F00BF00080240B0F5A07F78
:100CD4002FD22DE9F04104460D4617461E46AB2996
:100CE40006D88318B3F5A07F02DC8B19AC2B01DD89
:100CF400BDE8F081DFF83C8000221021404600F07E
:100D0400DBFFE21992B2AB199BB2013B013A9BB2F1
:100D140092B229462046FFF753FD06FB07F149002E
:100D24000698FFF723FD01221021404600F0C4FF7E
:100D3400DEE770470008024082B02DE9F04F83B02F
:100D440004460E4693460D93BDF83C80BDF84070B2
:100D540000221021244800F0AFFF9DF834502A19D6
:100D640092B29DF835A00AEB06039BB2013B013A0F
:100D74009BB292B231462046FFF722FD4FF00009A4
:100D84001DE03B0A8DF804308DF80570022101A89E
:100D9400FFF7ECFC0134A5420FD906FA04F313F46F
:100DA400004FEED04FEA18238DF804308DF80580FB
:100DB400022101A8FFF7DAFCECE709F10109CA45B1
:100DC40008D9ABF120030AFB03930E9A32F813609F
:100DD4000024E0E701221021034800F06DFF03B076
:100DE400BDE8F04F02B070470008024082B02DE920
:100DF400F04385B006460D4617460D93BDF83C906A
:100E0400BDF8408000221021184800F055FF10E082
:100E1400013700260DE0CDF80880CDF804900E9B34
:100E240000930D9B29463046FFF786FF3444A6B253
:100E340001373A7882B19DF834403319B3F5A07F75
:100E4400E9DB9DF835301D44ADB22B44AB2B03DCFC
:100E5400202ADDD00026DEE701221021034800F01D
:100E64002BFF05B0BDE8F04302B070470008024014
:100E74002DE9F04383B005460F4690461E46BDF863
:100E8400289000221021184800F016FFB5F5A07F25
:100E940026D2AB2F24D805EB0803B3F5A07F03DBE0
:100EA400C5F5A0781FFA88F8BB19AB2B02DDC7F192
:100EB400AC06B6B200240CE0E11989B208EB0502D5
:100EC400CDF800900B4692B22846FFF7C5FD0134D9
:100ED400E4B2B442F0D901221021034800F0ECFE40
:100EE40003B0BDE8F08300BF000802402DE9F04FD5
:100EF40083B004460D4616461F46BDF830A0BDF823
:100F040034B0BDF83880DFF84C90002210214846F8
:100F140000F0D2FECDF800803B46324629462046FA
:100F2400FFF79AFDCDF800805B46524639463046BD
:100F3400FFF792FDCDF800802B46224659465046D5
:100F4400FFF78AFD01221021484600F0B5FE03B0E8
:100F5400BDE8F08F000802402DE9F04F8BB0074642
:100F64000D4691469846BDF850300593BDF854306F
:100F74000693BDF85830079300221021374800F03B
:100F84009BFEA9EB070ABAF1000FB8BFCAF1000A29
:100F94000FFA8AFAA8EB0502002AB8BF52420FFAE8
:100FA40082FB3CB22EB2B94513D301230893A84562
:100FB40013D301230993DA4513DB0AEBDA7848F3F8
:100FC4004F08089B03930023089304934FF00009F0
:100FD4001EE04FF0FF330893E9E74FF0FF33099326
:100FE400E9E70BEBDB7848F34F085346DA469B46B8
:100FF400099B0493002309930393E7E7039B1C4491
:1010040024B2049B1E4436B209F101090FFA89F98E
:10101400CA451BDBA7B2B5B2079B0093069B059A92
:1010240029463846FFF718FDD8441FFA88F30FFA0B
:1010340088F8C245E2DCA3EB0A030FFA83F8089BA5
:101044001F443CB2099B1D442EB2D7E70122102154
:10105400024800F031FE0BB0BDE8F08F00080240FA
:101064002DE9F04F87B080460F46144602929B4606
:1010740000221021494800F01FFEA5B2C5F1010469
:1010840024B2C5EBC5335B001BB205931FFA88F885
:10109400BFB2E9195A4689B24046FFF7B7FC791B3B
:1010A4005A4689B24046FFF7B1FC05EB0806B6B2D2
:1010B4005A4639463046FFF7A9FCA8EB0505ADB200
:1010C4005A4639462846FFF7A1FCCDF800B03B4606
:1010D400324639462846FFF7BFFC00230393012319
:1010E40004934BE0029B013B1BB20293059B02332A
:1010F4001AB2059214FA83F31CB2039B01339DB216
:101104001BB20393049B02331AB2049214FA83F3BE
:101114001CB2A8EB050A1FFA8AFABDF80860B919CF
:1011240089B208EB05091FFA89F9CDF800B00B461E
:101134004A465046FFF790FCB91B89B2CDF800B07F
:101144000B4652464846FFF787FC08EB06091FFA90
:1011540089F9791989B2A8EB0606B6B2CDF800B0C0
:101164000B4632464846FFF777FC791B89B2CDF827
:1011740000B00B4632464846FFF76EFC039B029ACA
:10118400934202DA002CADDAB7E7012210210348BA
:1011940000F092FD07B0BDE8F08F00BF00080240E8
:1011A4002DE9F04784B04FF6FF70FFF769FB4FF469
:1011B4007A7000F043FEAD4C4FF6FF7502954FF484
:1011C40078460196636800932368A94A14210A208B
:1011D400FFF70CFE4FF47A7000F030FE47F6FF7014
:1011E400FFF74EFB4FF4FA7000F028FE3046FFF78D
:1011F40047FB4FF4FA7000F021FE1F20FFF740FB7D
:101204004FF4FA7000F01AFE4FF4FC60FFF738FB5D
:101214004FF4FA7000F012FE4FF6E070FFF730FB67
:101224004FF4FA7000F00AFE4BF64040FFF728FB3B
:101234004FF4FA7000F002FE40F2CF10FFF720FBEB
:101244004FF4FA7000F0FAFD4FF61F00FFF718FB99
:101254004FF4FA7000F0F2FD48F21F40FFF710FB64
:101264004FF4FA7000F0EAFD4CF21860FFF708FB47
:101274004FF4FA7000F0E2FD42F61230FFF700FB83
:101284004FF4FA7000F0DAFD2846FFF7F9FA4FF44C
:10129400FA7000F0D3FD774F029540F2FF7301938B
:1012A4007B6800933B68744A0A210846FFF79EFD59
:1012B400724BDFF8E891029501965A6800921B6818
:1012C4004A4632210A20FFF791FD02954FF6E07855
:1012D400CDF804806368009323684A464B210A20B2
:1012E400FFF784FD02954FF61F0301937B6800937B
:1012F4003B684A4664210A20FFF778FD4FF47A7070
:1013040000F09CFD3046FFF7BBFA00270297CDF8AA
:101314000480636800932368594A0A210846FFF74A
:1013240065FD009564231A461E210846FFF7ECFB71
:101334004FF47A7000F082FD3046FFF7A1FA02976D
:10134400CDF804806368009323684E4A0A21084656
:10135400FFF74CFD009532231A461E210846FFF77D
:1013640087FD4FF47A7000F069FD3046FFF788FA84
:101374000297CDF80480636800932368424A0A21E7
:101384000846FFF733FD2B4619223C210846FFF798
:10139400F5FB4FF47A7000F051FD3046FFF770FA18
:1013A4000297CDF80480636800932368374A0A21C2
:1013B4000846FFF71BFD2B4619223C210846FFF780
:1013C4004FFE4FF47A7000F039FD3046FFF758FABB
:1013D4000297CDF804806368009323682C4A0A219D
:1013E4000846FFF703FD02954FF0280ACDF804A044
:1013F4004FF03C09CDF8009046231E2211461046BA
:10140400FFF774FD4FF47A7000F018FD3046FFF7D3
:1014140037FA0297CDF804806368009323681D4A65
:101424000A210846FFF7E2FC0295CDF804A0CDF8A6
:10143400009046231E2211461046FFF78DFD4FF4FF
:101444007A7000F0FBFC2846FFF71AFA124B00935F
:1014540080231A4639463846FFF738FC40F6B83040
:1014640000F0ECFC04B0BDE8F08700BF08000020E9
:1014740030240408000000203C240408100000204C
:101484005824040864240408742404087C240408EC
:101494008824040894240408A02404084824040884
:1014A400FEE7FEE7FEE7FEE7FEE77047704770479A
:1014B40008B500F0B1FC08BD82B0002100910B4BCF
:1014C4005A6C42F480425A645A6C02F4804200928C
:1014D400009A01911A6C42F080521A641B6C03F05A
:1014E40080530193019B02B0704700BF0038024053
:1014F400002800F0E08170B582B00446036813F060
:10150400010F3BD09F4B9B6803F00C03042B2CD0A2
:101514009C4B9B6803F00C03082B21D06368B3F544
:10152400803F4FD0B3F5A02F52D0964B1A6822F4C7
:1015340080321A601A6822F480221A606368002BD1
:1015440050D000F075FC05468E4B1B6813F4003F29
:1015540014D100F06DFC401B6428F5D90320B1E1DF
:10156400884B5B6813F4800FD8D0864B1B6813F448
:10157400003F03D06368002B00F09F81236813F0C1
:10158400020F54D07F4B9B6813F00C0F3ED07D4B61
:101594009B6803F00C03082B33D0E368002B68D05E
:1015A400794B01221A6000F043FC0546754B1B6819
:1015B40013F0020F54D100F03BFC401B0228F5D974
:1015C40003207FE16F4A136843F480331360B5E767
:1015D4006C4B1A6842F480221A601A6842F4803212
:1015E4001A60ABE700F024FC0546664B1B6813F455
:1015F400003FC3D000F01CFC401B6428F5D9032035
:1016040060E1604B5B6813F4800FC6D15D4B1B68CF
:1016140013F0020F03D0E368012B40F05081594AC4
:10162400136823F0F803216943EAC10313602368B4
:1016340013F0080F42D063696BB3534B0122C3F814
:10164400802E00F0F5FB05464E4B5B6F13F0020F46
:1016540034D100F0EDFB401B0228F5D9032031E121
:10166400484A136823F0F803216943EAC10313606D
:10167400DDE7454B00221A6000F0DAFB0546414BDA
:101684001B6813F0020FD2D000F0D2FB401B0228DB
:10169400F5D9032016E13C4B0022C3F8802E00F05C
:1016A400C7FB0546374B5B6F13F0020F06D000F003
:1016B400BFFB401B0228F5D9032003E1236813F084
:1016C400040F77D02F4B1B6C13F0805F33D10023B2
:1016D40001932C4B1A6C42F080521A641B6C03F079
:1016E40080530193019B0125284B1B6813F4807FD1
:1016F40023D0A368012B34D0052B38D0214B1A6F8B
:1017040022F001021A671A6F22F004021A67A36812
:10171400002B3DD000F08CFB06461A4B1B6F13F0D8
:10172400020F46D100F084FB801B41F288339842BB
:10173400F3D90320C6E00025D6E7144A136843F41E
:101744008073136000F074FB0646104B1B6813F49F
:10175400807FCED100F06CFB801B0228F5D90320DA
:10176400B0E0084A136F43F001031367CFE7054B5A
:101774001A6F42F004021A671A6F42F001021A67E4
:10178400C5E700BF00380240000047420070004037
:1017940000F04EFB0646524B1B6F13F0020F08D0AD
:1017A40000F046FB801B41F288339842F3D90320B2
:1017B40088E0EDB9A369002B00F08380484A926861
:1017C40002F00C02082A51D0022B17D0454B0022FC
:1017D4001A6600F02DFB0446414B1B6813F0007F92
:1017E40042D000F025FB001B0228F5D9032069E054
:1017F4003B4A136C23F080531364DBE7394B00221C
:101804001A6600F015FB0546354B1B6813F0007F84
:1018140006D000F00DFB401B0228F5D9032051E04F
:10182400E369226A1343626A43EA8213A26A520892
:10183400013A43EA0243E26A43EA0263284A5360F4
:10184400284B01221A6600F0F3FA0446244B1B6865
:1018540013F0007F06D100F0EBFA001B0228F5D943
:1018640003202FE000202DE000202BE0012B2BD0C3
:101874001B4B5B6803F48001E269914226D103F0BB
:101884003F02216A8A4223D1616A47F6C0721A4034
:10189400B2EB811F1ED103F44031A26A5208013A0F
:1018A400B1EB024F18D103F07063E26AB3EB026F3D
:1018B40014D1002006E001207047012002E001203D
:1018C40000E0002002B070BD0120FBE70120F9E731
:1018D4000120F7E70120F5E70120F3E70120F1E714
:1018E400003802400000474208B5264B9B6803F0CD
:1018F4000C03042B41D0082B41D1224B5A6802F02F
:101904003F025B6813F4800F12D01E4B5968C1F379
:1019140088111D480023A1FB0001FEF7F7FC194BB9
:101924005B68C3F3014301335B00B0FBF3F008BD14
:10193400144B5868C0F388104FEA401CBCEB000CF1
:101944006EEB0E0E4FEA8E1343EA9C634FEA8C1142
:10195400B1EB0C0163EB0E03DB0043EA5173C900E6
:1019640011EB000C43F10003990200234FEA8C2091
:1019740041EA9C51FEF7CAFCD1E70348D7E7034884
:10198400D5E700BF0038024040787D010024F40010
:10199400002800F09B8070B50D4604464F4B1B6831
:1019A40003F007038B4208D2CBB24C4A137013687E
:1019B40003F007038B4240F08B80236813F0020F7F
:1019C40017D013F0040F04D0454A936843F4E0534E
:1019D4009360236813F0080F04D0414A936843F4DA
:1019E400604393603E4A936823F0F003A1680B437D
:1019F4009360236813F0010F32D06368012B21D068
:101A04009A1E012A25D9364A126812F0020F61D0B3
:101A140033498A6822F0030213438B6000F008FA0A
:101A240006462F4B9B6803F00C036268B3EB820FEE
:101A340016D000F0FDF9801B41F288339842F0D9AA
:101A4400032042E0264A126812F4003FE0D101204C
:101A54003BE0234A126812F0007FD9D1012034E020
:101A64001E4B1B6803F00703AB4207D9EAB21B4BBA
:101A74001A701B6803F00703AB422DD1236813F0DF
:101A8400040F06D0164A936823F4E053E1680B432D
:101A94009360236813F0080F07D0114A936823F466
:101AA4006043216943EAC1039360FFF71DFF0C4BB8
:101AB4009B68C3F303130B4AD35CD8400A4B1860EA
:101AC4000A4B186800F068F9002070BD01207047C7
:101AD4000120FAE70120F8E70120F6E7003C024084
:101AE40000380240B4CC0408200000201C00002070
:101AF40000230F2B00F2D78070B582B065E08568B3
:101B04004FEA430E032404FA0EF425EA0405CC68D4
:101B140004FA0EF42C438460446824EA02044A68FC
:101B2400C2F300129A40224342605CE0DC080834AD
:101B340050F8242003F00705AD004FF00F0E0EFA05
:101B440005FE22EA0E0E0A69AA4042EA0E0240F895
:101B540024205CE0042200E0002202FA0EF22A4370
:101B64000234514D45F82420504A94686FEA0C021F
:101B740024EA0C054E6816F4801F01D04CEA0405D3
:101B84004A4CA560E46802EA04054E6816F4001F96
:101B940001D04CEA0405454CE560646802EA04059A
:101BA4004E6816F4003F01D04CEA04053F4C6560D2
:101BB400246822404D6815F4803F01D04CEA0402A9
:101BC4003A4C226001330F2B6BD801229A400C68E7
:101BD40004EA020C32EA0404F4D14C6804F003046D
:101BE400013C012C8BD94A6802F00302032A09D074
:101BF400C4685D000322AA4024EA02048A68AA4059
:101C04002243C2604A6802F00302022A8ED00468AA
:101C14004FEA430E032202FA0EF224EA02044A684F
:101C240002F0030202FA0EF2224302604A6812F43E
:101C3400403FC7D0002201921D4A546C44F48044B2
:101C44005464526C02F480420192019A9C08A51CCF
:101C5400154A52F8255003F0030E4FEA8E0E0F2258
:101C640002FA0EF225EA0205124A90423FF474AFDA
:101C740002F5806290420ED002F5806290420CD050
:101C840002F5806290420AD002F5806290423FF4ED
:101C940061AF072261E701225FE702225DE70322C9
:101CA4005BE702B070BD704700380140003C014062
:101CB40000380240000002400AB181617047090403
:101CC40081617047002808DB0901C9B200F1604056
:101CD40000F5614080F80013704700F00F0009011F
:101CE400C9B2014B1954704714ED00E000B500F07F
:101CF4000700C0F1070CBCF1040F28BF4FF0040C1F
:101D0400031D062B0FD9C31E4FF0FF3E0EFA0CF035
:101D140021EA000199400EFA03FE22EA0E0241EA8A
:101D240002005DF804FB0023EEE70000074AD368D5
:101D340023F4E0631B041B0C000200F4E060034383
:101D440043F0BF6343F40033D360704700ED00E019
:101D540010B50446054BD868C0F30220FFF7C6FF50
:101D640001462046FFF7AEFF10BD00BF00ED00E0C6
:101D74000138B0F1807F0BD24FF0E0235861054A5F
:101D8400F02182F823100020986107221A6170471D
:101D94000120704700ED00E010B504460E4B1A78A0
:101DA4004FF47A73B3FBF2F30C4A1068B0FBF3F010
:101DB400FFF7DEFF68B90F2C01D901200AE00022E9
:101DC40021464FF0FF30FFF7C3FF054B1C60002096
:101DD40000E0012010BD00BF1800002020000020FA
:101DE4001C00002008B50B4B1A6842F400721A60FC
:101DF4001A6842F480621A601A6842F480721A60A7
:101E04000320FFF793FF0F20FFF7C6FFFFF754FBF4
:101E1400002008BD003C0240034A1168034B1B78B4
:101E24000B441360704700BF4000002018000020DE
:101E3400014B1868704700BF4000002038B50446C5
:101E4400FFF7F6FF0546B4F1FF3F02D0044B1B78C1
:101E54001C44FFF7EDFF401BA042FAD338BD00BF7E
:101E640018000020034AD2F8883043F47003C2F803
:101E74008830704700ED00E0F0B589B00024039489
:101E8400049405940694079400941F4B1A6B42F033
:101E940001021A631A6B02F001020092009A019483
:101EA4001A6B42F004021A631A6B02F004020192E4
:101EB400019A02941A6B42F002021A631B6B03F03C
:101EC40002030293029B114F224630213846FFF74A
:101ED400F3FE0F4D224603212846FFF7EDFE302383
:101EE4000393012604960594069403A93846FFF744
:101EF400FFFD0323039304960594069403A928463F
:101F0400FFF7F6FD09B0F0BD0038024000080240BA
:101F14000004024008B50F480F4B03604FF482736E
:101F2400436000238360C360022202610122426194
:101F34004FF4007282611022C261036243628362C1
:101F44000A23C36200F0E6F800B908BDFEF756FBA9
:101F5400FBE700BF440000200030014000B589B019
:101F64000023039304930593069307930268154B88
:101F74009A4202D009B05DF804FB0021019103F5F7
:101F840084335A6C42F480525A645A6C02F480527C
:101F94000192019A02911A6B42F001021A631B6BBF
:101FA40003F001030293029BA023039302230493EF
:101FB400032306930523079303A90348FFF798FD1A
:101FC400D8E700BF00300140000002402DE9F0478F
:101FD40082B00546884617461E46FFF729FF0A9B2E
:101FE4001B1A03EB0609FFF723FF8246284B1B68E5
:101FF400C3F3CB3309FB03F301932B689C6838EAE2
:1020040004040CBF01230023BB423DD0B6F1FF3FC3
:10201400F3D0FFF70DFFA0EB0A00484503D2019B64
:1020240073BB9946E9E72A68536823F0E0035360D9
:102034006B68B3F5827F0BD0AB6AB3F5005F14D045
:10204400012385F85130002385F8503003201CE02B
:10205400AB68B3F5004F02D0B3F5806FECD12A68BA
:10206400136823F040031360E6E72A68136823F437
:10207400005313602A68136843F400531360DFE7C6
:10208400019B013B0193B8E7002002B0BDE8F08753
:102094002000002070B584B004460D461646009218
:1020A4000B4601220221FFF791FFD0B9174B1B68A1
:1020B400174AA2FB03235B0D4FF47A7202FB03F36E
:1020C40003936368B3F5827F11D0039B3BB1039BF9
:1020D400013B039323689B6813F0800FF5D104B090
:1020E40070BD636D43F0200363650320F7E700963A
:1020F4002B46002280212046FFF768FF0028EED0FF
:10210400636D43F0200363650320E8E720000020AB
:10211400819F5E1600285AD010B50446436A33B92D
:102124004368B3F5827F05D00023C36102E0002336
:10213400036143610023A36294F85130002B40D023
:10214400022384F851302268136823F0400313609B
:10215400636803F48273A26802F404421343E268DE
:1021640002F400621343226902F00202134362691B
:1021740002F001021343A26902F400721343E269FC
:1021840002F038021343226A02F080021343A26A67
:1021940002F40052216813430B60638B03F00403C1
:1021A400626A02F01002216813434B602268D3690B
:1021B40023F40063D36100206065012384F8513067
:1021C40010BD84F850302046FFF7C8FEB8E7012060
:1021D40070472DE9F04383B00446894690461D4676
:1021E400FFF726FE94F85160F6B2012E40F0CC8041
:1021F4000746B9F1000F00F0C880B8F1000F00F0F5
:10220400C48094F85030012B00F0C380012384F87B
:102214005030032384F8513000236365C4F83090B0
:10222400A4F83480A4F83680A363A387E3876364A7
:102234002364A368B3F5004F1ED023681A6812F014
:10224400400F03D11A6842F040021A60E368B3F504
:10225400006F1CD0636813B1B8F1010F5FD1226B1A
:10226400236812781A73236B01332363E38E9BB2C2
:10227400013B9BB2E38652E02268136823F04003DB
:1022840013602268136843F480431360D5E76368DE
:1022940013B1B8F1010F15D1226B23681288DA60EB
:1022A400236B02332363E38E9BB2013B9BB2E38631
:1022B40008E0FFF7BDFDC01BA84202D3B5F1FF3F04
:1022C40015D1A5B1E38E9BB2002B42D023689A6846
:1022D40012F0020FEDD0226B1288DA60236B023306
:1022E4002363E38E9BB2013B9BB2E386EAE70123BF
:1022F40084F85130002384F85030032645E0226BE3
:1023040012781A73236B01332363B4F836C01FFAAF
:102314008CFC0CF1FF3C1FFA8CFCA4F836C0E38E55
:102324009BB2B3B123689A6812F0020FE7D1FFF7AA
:102334007FFDC01BA84202D3B5F1FF3F01D1002DA0
:10234400EDD1012384F85130002384F85030032662
:102354001BE03A4629462046FFF79CFE08B120239D
:102364006365A36833B901932368DA6801929B68B3
:102374000193019B012384F85130002384F85030E9
:10238400636D13B9002600E00226304603B0BDE8B1
:10239400F0830226F9E70000DFF834D0FFF762FD8E
:1023A4000C480D490D4A002302E0D458C4500433AC
:1023B400C4188C42F9D30A4A0A4C002301E0136082
:1023C4000432A242FBD3FDF727FFFEF75FF9704703
:1023D400008001200000002024000020D4CC040848
:1023E400240000209C000020FEE70000F8B500BF98
:1023F400F8BC08BC9E467047F8B500BFF8BC08BCE2
:042404009E46704739
:102408000C0C003333000000D0040D11132B3F5483
:102418004C180D0B1F230000D0040C11132C3F4443
:10242800512F1F1F202300005370656564205465D9
:1024380073740000466F6E7420746573742E000008
:1024480048656C6C6F205374657665210000000048
:10245800526563742E2F4C696E652E0046696C6C4C
:10246800656420526563742E00000000436972633E
:102478006C652E0046696C6C6564204369722E0099
:10248800547269616E676C650000000046696C6C87
:1024980065642054726900000000000000210000FB
:1024A8000021000000000820004000200001084131
:1024B80000000000004000000800080008020000BA
:1024C80008000800000008000000080008000800D4
:1024D8001042000000000020000008410000000039
:1024E800082100000000084000000820000000004B
:1024F800080000000000082008000000000000009C
:1025080000000000000000000802000000000002B7
:1025180000020001000008000800000000000000A0
:102528000800000008210001080008210000000040
:10253800000000000800080008410000000000201A
:1025480000000000000100010820000000600000F9
:102558001000080000000020080000200000000013
:1025680008000800000000200040000000210000D2
:10257800006000600000100000200000082000003B
:102588000000100008000000080000000020000003
:1025980008000800104200000861FFDFF7BEFFFFD7
:1025A800F7BDCE77F79BFFBBFFFBE6F9D637C5B57E
:1025B800C5B4F779F799FFBAFFDAEF38BDB4C5F4B7
:1025C800EF58F798F758FF9AE718C5F4C5D3DE9681
:1025D800D655FFBAF7B9F7D9F7B9F799F79AF7992E
:1025E800F799FFDAFFDAF7B9FFBAF799FFBAFFBA36
:1025F800FFB9FFBAF799FFDAFFBAFFBAFFBAFFBA15
:10260800FFB9FFB9FFB9FFBAF77AFFFACE749CB1E8
:10261800AD54C5D4DEB6FF9AFFBAF799FFB9FFB932
:10262800F7B9FFDAEF58BDF3F77AFFDBFFFBFFDA04
:10263800FFDAEF58EF58FFFBF799FFDAFFDAF7B93F
:10264800FFFADEF7BDF4EF59FFBCF7BBF7FCF7BBA9
:10265800F75AFF7BFFFCF7BBF77BE73ABE15CE3690
:10266800FF7CF73AFFBCFFFCCE58C5D5F75AFFDD13
:10267800F79CB5759410A450B431C411CC93BC9296
:10268800BC72CC72CC72BC92C472BC92BCF4ACB2B8
:10269800B4D3C5769CB308620000FFFFFFFFF79D27
:1026A800C636E6F7FFB9FF97FF57DE34DE36B4F0DB
:1026B800CDB1FF76FF76FFD7F757D6539C8DCE3234
:1026C800FFB6F754F775FFB7D633ACCEC5B1CDF228
:1026D800E6B4FFF8FFD7FFF7FFF7FFD7FFD7FFB73D
:1026E800FFB6FFF7FFD7FFB6FFB7EF55FFD7FFD706
:1026F800FFB6FFD7FFB6FFD7FFB7FFD7FFD7FFB7A4
:10270800FFB7FFB6FFB7FFD7FF97FFF7E7348C4D4A
:1027180083CD9CAED653EED5FFD7FFD7FF96FFD615
:10272800FFB6FFF7FFB6D692BDB0EF36FFF9F776E2
:10273800FFB6F755E6F4EF36FFF8F775FFF7FFD762
:10274800FFD7F776BDD0BDD1FF38FFDAFFFBFFFA20
:10275800E736EF36FFD8FFD8FFB9FFFBBDD2BD92F1
:10276800DE35FF79FFB9F7F9F73CBD72DE54FF5843
:10277800FFDDE69A8BAE832BBB2ECAEECB2EBB2E8B
:10278800BB4EC30ED32EC32ECB0EBB2EB3AFABEFB7
:10279800A410B4F4AD1400001061F79EFFFFF79D7C
:1027A800A531FFFAFFB7FFD6FF35CD70BCD09C0C22
:1027B800DE34FF36FF96FF56F6D7B4EF9C2CF7169B
:1027C800FF76E6B2F735E6B4A44EACAFD5F3D61330
:1027D800FF77FF77F755FFB7F776FFD7FFB7FF9675
:1027E800FFB6FF96FF77FFB8E6D4EF15FF96FF9682
:1027F800FF76FF96FF76FF96FF76FF76FF96FF76C9
:10280800FF76FF76FF76FF76FFB7F795F7967BACF6
:102818005208832BB4CFD5D3FF56FF97FF55FF95AA
:10282800FF75FF96FF96FFB7AD0EBD90F716FF76C2
:10283800FFB6FF96EF15CDF2FF56FF76F735FFB7D7
:10284800FF76FF97F757A4ADCD71F717FFD9FFF9BA
:10285800E736DEB3E6D4FFD8F7B8FFF9F778ACAEC1
:10286800C530E613FF98EF56FFDCD654A48CC5702C
:10287800FF19FFBDC5946288B2CCC28CBA2AAA4A95
:10288800B2CBB24AC26BB24ACA4BBA6B9A6A9B2D98
:102898009B8E9C30A4F300610000FFFFFFDFFFFE6A
:1028A800AD51F757F734FFB4D5AFD5B193EC83AB3F
:1028B800A48EBD70E6B5EEB6E6568B8BA46EFF57B8
:1028C800EEB3F6F3FF97BD308B6BBD11C571F6F60D
:1028D800FF76FF97FF56FF56EED4FF96FF75FF75FC
:1028E800FF96FF76FF98FF57DE51FF56FF96FF765B
:1028F800FF96FF96FF96FF76FF97FF76FF96FF7687
:10290800FF96FF76FF76F714FF35FFB5FFF8944E74
:10291800938EB470936BCD73DE32FF36FF96FF96BD
:10292800FF55FF55FF75FF76EED5A46CC571FF37CF
:10293800FF76FF75FF56BD50CD6FFF57FF56FF5608
:10294800FF76FF77FFB8D633A40CCD72F717FFFADE
:10295800FFF9E715D632FF37FFD9EF78FFFBCDD364
:10296800A42DC530EEB5FFB9F797FFFAB530A4CE60
:10297800D632F716FFBA7BAC89C6B1E9B9A8A9C7A0
:10298800AA29A987B9E8A9A7A967AA0989E782890D
:1029980082EB93CFA4D200000000FFFFF7BEFFDE5A
:1029A800AD32E6D5FFD6FF52C52EC52F7308DE9689
:1029B800AD307BA97B69A48FAC8E72E7D5D1FF556A
:1029C800DE4FF733EEB38B89AC2CBD0ED5F0FF7418
:1029D800FF74FF74FFB6EE92EED2FF74FF74FF73BC
:1029E800FF53FF95FF76D611DE2FFF94FF94FF74F7
:1029F800FF94FF74FF74FF73FF74FF33FF95FF5458
:102A0800FF74FF74FF54E691FEF3F773FFF5B54FBB
:102A1800AC4FE5939B6AB48EC52DEE92FFB6FF547A
:102A2800EED1F712FFB5FF53FFD6B50DA42BD59005
:102A3800F6B2FF74FF75BD8FAC4BCD6FFF35FF75D8
:102A4800FF54FF95F733FFD6A46E9C0CD5D3FF79BE
:102A5800FFFBF778D633D5B1FFFAFFBAF799FFBB7A
:102A680093ECBCAFBD0FFF37FFF7FFFAE739946D62
:102A7800A4ACD631FFB9D67671449105B947B126D1
:102A8800A946A0C5B926B126A96699C779A672280C
:102A98007269834DA49200000020EF9EFFFFFFFFA4
:102AA800BD94C5D2FFF7E690BCADBCCE8388FFB815
:102AB800F796F775C5B08BCA6A856AA5F6D4EED2C3
:102AC800EED0FF53C54E8B69C4EDC52DF6F3FF73E9
:102AD800FFB4FF53FF34D5EFFF54FF74FFB4FF93E7
:102AE800FF73FF95E692ACCCEEF1FF94FF73FF7392
:102AF800FF94FF73FF73FF93F6F2EED1FF74FF7438
:102B0800FF53FF74FF74DE2FF693F752F7B3DE72AC
:102B18009349E531BC2C8B29BD0DD5CFFF75FF54EA
:102B2800EED1DE2FFF53FF74FFB3EEF4A44CAC4C90
:102B3800DDF0FF73FFB5E6D3B46CAC6BD5D0FF54B2
:102B4800FF94FF73FF94FFB4D65393EAB4ADDE53FA
:102B5800FF98FFB9EEF6BD0FEED6FFFAFFFAFFDADF
:102B6800CDF393AAB48DCD50FFB8F799FFFCB59279
:102B78008BEABD2EDE52FFF99B8C78C3B106A8C53F
:102B8800A0C4A8A4A8C4A8E5A906890460C361A62E
:102B98007249834D9C5108000000FFFFFFDFFFDFF3
:102BA800D678942DFF56D630CCEE9BC99C09FF955C
:102BB800FFF4F772FFB5F6F483298BAAFF37D5F037
:102BC800F713F6F493AA8B8CBCCDD58FFF55FF95E0
:102BD800F773FFB6D610E632FF75FF54FF94FF5324
:102BE800FF95FF75C5909C4BFF96FF95FF75FF7588
:102BF800FF95FF74FF74FFB5E671E691FF75FF75E9
:102C0800FF55FF75FF95DE30CD0FFF95FFD4FF56BA
:102C18009308DCF0CCD082C9B4ADB4ADEE93FF9686
:102C2800FF96C58EDE31FF55F773FF97AC6FA3EDA6
:102C3800BCCDE650FF95FFB7BCAFB46DAC6CDE11F0
:102C4800FF55FF74FF94F774FFD79C4A93C9BD0DD5
:102C5800EEF5FFD8FFD9C590B4EEFFFAF7F9FFFA01
:102C6800FFD993A9B4ADAC6BD5B2FFDAF798FFFBE7
:102C78009C0D9BABC52EFF33E6B7712498C4A0C446
:102C880098E5A10598A498E4A885A10670E4614593
:102C98006A08832D941008000001FFFFFFBEFFFFA4
:102CA800E73C7BACFEF6DD4DBCEE8B498B6ADE1251
:102CB800FF96FF33FF74CDCE6A68C56DF6F2D5EF87
:102CC800FF75D5B172A8B4ACB4ACF6F3FF73FFB41A
:102CD800FF75FF56A46BFF15FF76FF92FF73FF7415
:102CE800FF73F7157B08DE52FFB3F733FF75FF5507
:102CF800FF74FF73FF74FF95D590F6F3FF74FF958B
:102D0800FF53FF73FF75DE31BCADFF14FF94FFF670
:102D18009C4AC44DE4B0BBEC7B29BC8ED58FFFB573
:102D2800FFD5EE51BCCCF6F4FF53FFD5E733942919
:102D3800B4ADC4CEF6B4FF75E7359C2CB450C46F5F
:102D4800E5D0FF52FFD4F713FF91F71372A7C4F031
:102D5800C4EEFF15FF97EEF7AC4CDE13FFDAF7DA97
:102D6800FFFACE138B68C4EFB4ACF6B4FFD9F7DB27
:102D7800CEB86B2ABCCFE52EFF977C0A7884B0A624
:102D8800A8C5A08290C3A8E4A0A598C468C351C5EB
:102D98005A07930CA41100000021EF7DFFFFFFFFED
:102DA800F7DE8C4ECD91D52DC53072A66225B4CEF6
:102DB800EE93FF54FF75BD0D6A68DE10E670E6718C
:102DC800FF34AC8D832AB4CCC54EFF54FF73FFB4D7
:102DD800FF96C58FBD0DFF35FF56FF72FF73FF7558
:102DE800FFB4C56F8B8AF715FFB3FF74FF75FF75C6
:102DF800FF94FF74FF95F714C52EFF14FF74FF743A
:102E0800FF74FF73FF74DE31B48CF693FF74FFD543
:102E1800ACCCB3ECE4F1D4CF8B2AAC2DC50EEEF3D9
:102E2800FF74F6F3C52DCDAFFF75F753FFB5ACCCE6
:102E38009BEBBCAECD6FFF34FFD5BD4EA44DC4CEC9
:102E4800C4CCFEF2FF33FF96FFB4FF77AC8F9BCC68
:102E5800BCEED610FF75FF56CD30AC8DF757FFFA94
:102E6800FFFAFF998B89B48DBCADCD6FFF98FFFA3F
:102E7800F7DB944E8B6AD4CEEEB4D6B568E3A08562
:102E8800A8C5A8E4A0E498A3A0A598C468C359A5B8
:102E98006207930CAC1100000000F7BEFFFFFFFFB4
:102EA800FFFFB574836ACD2FAC8D93CA93EB624351
:102EB800B4EDEEB3FF36AC4C7AE9F6D4D5CEFF14B8
:102EC800EEB38B68A3ECBCCCE651FF95FF53FF959E
:102ED800F7148BC8DE31FF75FF55FF52FF73FF757E
:102EE800FF758BA8ACADFF97FF93FF94FF54FF7558
:102EF800FF74FF74FF95D611B48CFF34FF74FF5430
:102F0800FF94FF74FF75DE31B46CDDF0FF75FFD5FB
:102F1800C5AFA369DCF0D510B3ED8B49B4CDD5CFDF
:102F2800FF34FF74CDAEB4ABEE91FF74FFB5E6B3DA
:102F38008B48C4CEB48CE631FFB3F7748C09B4CD9A
:102F4800BCACCD2DFF14FFD8FFD8FFDAEEB8836AEA
:102F5800B4EEBD0CE691FFB6E5F1AC4BC590FFFAB7
:102F6800FFFAFFFABD508BAAC4EEB46CE653FFFA21
:102F7800FFFBDEB672C8BC8FC54EFFB88AE888A3CF
:102F8800A8A4A8C4A88390E4A0C598C468C3598518
:102F980062079B2DB43100000000FFFFF7DFFFFF41
:102FA800FFFFBD946266C5309C0C8BCAFF77A48B6B
:102FB8005A02B4CDCD71AC4E93CBF6D4CD8DFF75FE
:102FC800D5B07AE7B48DBD0DF713FF94F733FFB68C
:102FD800CDAF8BA8F714FF95FF54FF73FF73FF75F0
:102FE800E6727305D611FF96FF73FF74FF34FF95E1
:102FF800FF53FF74FF75ACCCAC8BFF55FF74FF54C7
:10300800FF94FF74FF75D5D0AC6CCD4EFF54FFB55F
:10301800DE929B49DCF0C4AEDCF182C8B4ADC4CD0D
:10302800FF13FFB4CE0FB48BBCECFF75FF34FFB7B2
:103038009C2B9BEBC4EEC4EDFF12FFB6BE1183C9F7
:10304800C4EEC48DD5D1FFF9FFFAFFFBFFDB9C6E00
:10305800A46CB4ECBD4CFF54F693C50DA44BEF160D
:10306800FFB9FFB9F75883A9BCCEB46DC50EF736C2
:10307800FFD9FFFB942E834BBCCCEE53CDD170E22D
:10308800A8C4A8A4A0239145A0C598C470C3598416
:103098006A07A32DBC5200000020FFFFFFFFFFDFDF
:1030A800F77CA4907B29A44D8B8A9C2BFF97FF5516
:1030B800B4ED5A03A42D8B6BB4AEE652DE0FFF7548
:1030C800AC6D8308BCEDD5AFFF94FF53FF54FF767A
:1030D80093C9B4CDFF75FF74FF74FF74FF74FF9537
:1030E800ACCD8367F734FF54FF73FF54FF54FF954B
:1030F800F6F2FF74FF358BA9BCEDFF75FF74FF7402
:10310800FF74FF53FF54C54E9BEBBCCDFEF3F77421
:10311800F7359BCADD51C4CFE4F1A3AB9BCBC4AD5B
:10312800EE31FFB5DE91AC4BB48BE631FF55FF565F
:10313800D6126A85C50FBC8CDDB1FF78F7DA7BCB78
:10314800B48EC4AEBCEEE6F5FFFAFFD8FFD9D6338D
:103158007B48BD0FB4ACE631FF55CD6EAC8BC59046
:10316800F736FFD9FFFAAD4F93CABCCEC4EECD9067
:10317800FFF8FFFAD67649C5B48CCD2FF77779E4F6
:1031880098C3A8C5A8648904A0C598C578C3616414
:103198007207AB4EBC7200000020F7DFFFFFFFFF95
:1031A800C5B4ACAFA44D7B087B29CDB1FF55FF95C5
:1031B800FF55CD906A866246C56FCDB0F6D2F6D37C
:1031C8008B6A93ABBD0DEE72FF94FF53FF75E65209
:1031D80072C6DE12FF75FF73FF73FF74FF74FF552D
:1031E8008369A44BFF95FF54FF94FF54FF75FF7448
:1031F800EED1FF75EE937B07C52EFF55FF74FF7464
:10320800FF74FF73FF75C56E838ABCCDF672FF74B9
:10321800F775A42BDD72DDB3CC6DD4F082C8C4AED3
:10322800C52EFF55EF1593EBBCCEBCCDFF35FF97F0
:10323800F77873489BCBC4AEBCAFF718FFFCB55109
:103248008B8ABCAFBCCEC54FFF96FF95FF75FF7646
:103258006AC6AC6EBCCFC50EFF55DDF0B4ACB4ACDD
:10326800EE94FF97FFF9E7367B08B48EC4CEBCED29
:10327800F735FFF8FFDA5A887265C4AEEF15A3EB8D
:103288007882A8A5B0E690C3A0C4A0E578E46164FC
:103298007A08B34EC47208000000FFFFFFFFEF3B3F
:1032A800A48FD5D2BCEE7B2751C4DE32FFB5EF1117
:1032B800FFB5FFB7B4CF6245D5D0C54FFF13E63091
:1032C80082C9AC2DC52DFF14FF93FF73FF55AC8C3D
:1032D8008307F6B5FF75FF92FF72FF55FF95E692DB
:1032E80072C7C590FF73FF94FF74FF54FF75F6F221
:1032F800E690FF75CDB072A6C54EFF55FF53FF741B
:10330800FF74FF74FF95CDCF6AE8BCCEE5EFFF747C
:10331800FF95A42BCD10FE96D4CDE5119B4BA3ECC5
:10332800B4EDEEB3FF789C8FB46DB48CDE11FFF969
:10333800FFDAB59272C8B42DBCCDCD91FFBAE6B60E
:103348006AC7BD0FB46CC4ADE651FF33F752FFB680
:103358009C2B72C8C4F0BC8CE651F6F4BCACBCAD76
:10336800CD90EED4FFF8FFF7944C8B6ABC8EC4CE98
:10337800D5D0FFD7FFFAAD5140C1A38BD5D2CDF23E
:1033880070E3A064A0E5A0C3A0C4A1058104696599
:103398008208BB4ECC9308000800FFDFFFFFBD95F5
:1033A800BD31E633BCEE9C2B5A05FF77FF53FF7106
:1033B800FF73F6F49C4B72E7D5F0C54FFF13D58E1B
:1033C8007AC9BCAFCD6DFF55FF92FF73FF147B0622
:1033D8009BEBF6D6FF95FF92FF72FF55FF95CDCE7A
:1033E8006AA7DE53F732FF94FF54FF54FF75E67067
:1033F800DE70FF54BD0E6A86CD90FF96FF74FF7491
:10340800FF74F753FF54D5D05225BC8DD54DFF74AA
:10341800FFD6A44BBC8EFF39EDD0CC6ECC707AE8C9
:10342800AD0EDE12FFBAB5B493ABB4AEBD0EF777EE
:10343800FFFADEF87B09932AB4CBBD0DE673FFB81B
:103448007347940ACD0FCC8CC50DFF13F731FF9548
:10345800D6134122B48EBC8CBD4DFF56CD4FBCACAB
:10346800AC4BF6D4F775FFF7CE5451E4C4D0BC6D1D
:10347800BD0DF734FFD8EF5849437A67C4CEDEB59F
:1034880081C5A8A590A4A8A4A0C4A1058925718573
:103498008228BB4ECC9308000021F7BFFFFEA4AFE3
:1034A800EED5DE31B4CDAC6C832AFF14FF33FF3385
:1034B800FF53EEB38BAB8389DD8FCD6DFF35A44D04
:1034C8008B49BCECDE30FF75FF54FFB5D58F728693
:1034D800C4EEFF52FF71FF94FF74FF53FF55A3EC36
:1034E8008309EE73FF94FF74FF93FF73FF91CDCFB1
:1034F800F6F4F73193AB59E6DDEEFF74FF54FF3471
:10350800FF55FF75FF75D58E51C59BECBD0FFF5755
:10351800FFDAA4CFA46EFF18F716CC8EECF1932A2D
:1035280093ACC511FF98E733834ACD0EBC6BE61206
:10353800F775FFF59429ABEE8B48BCCFCD70FF959E
:10354800B56D51E4C4F1C4ACC4ACE630FF35FF75C9
:10355800FF5352036A89C551AC8CEE73DDAFBC8B47
:10356800BCADBCEEFF77FFB6FFB76AC6836BC4D0AD
:10357800BC6CDDD0FFB7F7FA7B275841ABCEEE54D1
:1035880083479021B085A8E5B0C5B0C59945696461
:103598009249D34FC3F100400000FFFFDE98B551B8
:1035A800FF56CDAFBCEDAC4C7AE9FF35EE91FF3359
:1035B800FF73E6528B8A93CAD54ECD8EFF159BEBCF
:1035C80093AABCCCE670FF75FF54FF54B4CC7AC7FD
:1035D800CD70FF53FF72FF75FF93FF73F71393A925
:1035E80093CAF6F2FF73F773FF53FF54F751BD2EDA
:1035F800FF56EED172E76227D5CFFF96FF96FF768A
:10360800FF76FF97FF97C56E622693CBBD0EF6F542
:10361800FFDAAD309C4DFF18FF57EDB2D48FB40DD3
:103628007AC9C4F0EE94F7958BABBCCDC48CC4EDCD
:10363800F734F794C58EA3CD9BCBA3ECC4EEEED3A1
:10364800EF1449C3AC6EC4ADBC6BCD2DFF36F75437
:10365800FFB48BAA6228AC6EB4CDD58FE5F0B46BFD
:10366800BCCDB4CEE693FFD7FFD7A4AD51E4BCD010
:10367800BCADC50DF756FFF9A4AD58827A28CDB177
:10368800B44C88C38864808368828883A18789E76B
:1036980089C7C30ED4D400000001FFFFB573CE1351
:1036A800FFB6CD8EBCEDAC4D6226F6F5DE30EEB23F
:1036B800FF94DE117B099C2BCCEDD5CFEED383494B
:1036C800A40CBCECEED2FF95FF75F6F393C98B6999
:1036D800E633FF95FF95F796FF95FF94DE517B073C
:1036E800AC8CFF54FF94FF75FF96FF76EEF2ACCDDD
:1036F800FFB8DE306A8672CACDD1FFD8FFD9FFD9AC
:10370800FFB8FFF9FFD9BD707AC8938ABCCDE673BC
:10371800FFD9BDB1940BFF18FF77FEB5D4AECCD05E
:103728007AA8AC2DCD90FFD6944CAC4BC4ADBC4C14
:10373800E672FF94EEF493ABBCAF8AE8BC8DCDAFD4
:10374800FFB773487AE8C4EEBCACB48BF694FF3488
:10375800FFD5BD2F72898B49C50FB4ACE611AC2AD1
:10376800BCCDB4ADCD8FFF97FFF7D69441829BECCB
:10377800C4EEB46BE673FFD9C5F160C360E4A4EF8F
:10378800C4CF58A1716692EBA490A30C81467986A8
:10379800A2ABBB0EC45200000021FFDFB573EF36A9
:1037A800FF75C56DBCCDB46E4163CDB0DE31D5CFEC
:1037B800FF34D5D172A7AC8CBCACDE10E65272C710
:1037C800B48EBCECFF13FF95FF75E6727B079C0C6B
:1037D800F6D6FFB7FFB7FFD8FFB9FFB9CDB272A8C9
:1037E800C551FFB8FFD8FFBAFFD8FFB9C5D1ACADF6
:1037F800FFB9B50E7B29834BCDB1FFD8FFD8FFD8D1
:10380800F757FFB8FF98B4EE83298B69B4ACD5F0AD
:10381800FFD7CE118BA9FF18FF57FEF6E591CCCF45
:10382800A3CC9349C52FFF75AD4F93EACCCFC48D78
:10383800C52DFF95FF76940BC4D09B4AA3AABCED77
:10384800F6F5B54F5A24AC6DC50EB48CCD6FFF3567
:10385800FFB4C5908B6C82C7BCAEB4ADDDD0A40AF2
:10386800B46CBCCEB4CDFF15FFF7EF576B086AA751
:10387800C4CFB44BCD6FFF57DF15716568837B49A3
:10388800CC8F51C5C575F77BF7FDFF5CC4D27A496B
:103898009A8BC34FBC1100000000EF7DB572FFB8D2
:1038A800FF75BD2CBD0EA40D39038BC9DE31C52EA5
:1038B800EE92D5907287B4ADBC8CE651D5D072A685
:1038C800BCCFC50CFF53FF74FF55CDB072A6B4AD85
:1038D800FF36FF97FFD7FFF8FF99FF98BD3172A910
:1038E800CDB2FF97FFD8FFBAFFB7FFB9942CACEE63
:1038F800FF9893CA93CB830ACD4FFF76FF75FF7568
:10390800EEB3F755F715AC6C8B4A936AAC4CCD8F78
:10391800FF96D6518368FEF7FF37FF16F694CCCF93
:10392800CCAF8AE8B4CDEED3D6B37B27CD10C4AEE6
:10393800B46AF6F4FF96B52DBC6FCCF08AC7B46DA7
:10394800DE33D6127B07832ABCEFC4EDBC8DF6B3F9
:10395800FFB5C5B19BADA38A938ABCEECD4FAC6BC6
:103968009BEBBCCEB48CE632FFD6FFB79CCE5A4652
:10397800A3ECC4AEBCCDF6B4F7F88248788459A459
:10398800BC4E736BF7DEE79CEF3BEF7CEFDC9C2FC4
:103998008A2ACB2FC43200000000EF5CA4F1F7376D
:1039A800FFB7BD2DCD508B0949A572E6C54FBCEEBA
:1039B800D5AFC50F72A7B4CDBC8CEE52BD4E72C741
:1039C800BCCFCD4DFF73FF74F6D3B4AD72A7BD0E57
:1039D800FF35FF76FF96FFB6EEF3F734AC8C72E74F
:1039E800D5D1FF93FF93F756F755F7566AC8C570B8
:1039F800FF568309AC4D7AC8CD2DFF34FF54FF53D1
:103A0800E670FF54FF14B44A8B4AA3CCA3CACD4E28
:103A1800FF74DE718B68FEB7FF38FF57F6F5DD518E
:103A2800D4B09B6AA42BDDF1EF556AA6C4D0C48D2F
:103A3800BCACDDD0FF96D650B48FE5B3A38A9B6AA1
:103A4800C530E67393CA82EAA44CBCCEBC6DDDF0E7
:103A5800FFD5D632936BCCAE7A87B48EBCEEB4CD9C
:103A68009389BCCEBC8DD54EFF75FFF8B570730831
:103A780072A7BCAFBC8DDDF1FFF79B4A80C560A281
:103A8800934B736BEF5CD719EEDBDF1AEFFDA4B134
:103A9800A26BD30FBBF100200000F7BDB573C5B210
:103AA800FF57C54ECD307AC85A48940B93C9B48D88
:103AB800C50EB48E7AA7BCEEBC8CEE52B4CC83088B
:103AC800BCCFD58EFF74FF74E65193CB7AE8C54E10
:103AD800FF33FF55FF55F732DE6FF6F29C0B830973
:103AE800DE11FF92FF92FF74FF74DE5151E5E6523A
:103AF800F6B382EABCCF7AA7C4ECFF14FF74FF5375
:103B0800DE2FFF74F6F3AC09934BB42E9329C52E20
:103B1800FF34E6928B89FE98FF18FF78FF57F5F37C
:103B2800D48FAC0D8B89CD4FF77572E7938CBCCED3
:103B3800C4EDC4EDFF55EEF2B48FEE14CCF08B0952
:103B4800A40BE6739BEAA3AE8369BCADBC8EC52EFD
:103B5800FFB4DE73936BE53082E9A3EBB4CEBCEE21
:103B68008B49BCAEBC8DC4ACF6F3FFD7CE3383AA69
:103B780051C4A40CBCADCD2EF7D5AC4D80A4886241
:103B8800624662A9CD96FFFDF73CFFFEE73A9B4DE2
:103B9800B24BD32FBC3100200000FFFFDEB9A46E6A
:103BA800E674C54FBCCE8B4A6AAACDB16AA5A42CCF
:103BB800BCEDB46D7287BD0EBC8DE652A46B8B490B
:103BC800BCAED5AEFF93FF94D61083498B49CD8EFA
:103BD800FF32FF74FF34EECFDE4FF6D49BAB82EB9F
:103BE800E5F3FF74FF52FF76FFB4BD4C4963F6B3AB
:103BF800DDCF8AEACCEF7A87BCCCF714FF95F73390
:103C0800D60EFF74EEB39BC9936BC4908AC8C50ED9
:103C1800FF33EEB293AAFE78FEF8EF57FFB8FE55D1
:103C2800E4D1BC4E8348BCCDFF958BAA6226C4EF75
:103C3800BCACBCADF6F4FF939C0DFEF7DD729B8C1B
:103C48008B49DE11AC2CBC3172E7BCAEBC6EBCED4E
:103C5800F753D673A3CDE510A3CD936ABCEEB4CECB
:103C68008348BCAEC4AEC46BF692FF35EF367B8A90
:103C780049838B4ABCCEBCCCEF94BD0F7883A8A5F2
:103C88005205498561A7B513C637AD33830B8987BC
:103C9800C24CCB2FBCB300000000FFFEFFDFBD9677
:103CA8009C4FCDB0C4ED932993CC93E9EE956A86E9
:103CB800AC8DAC6D7AE8BD0DB4ABEE5393AA9BAA5C
:103CC800BCCDDDEFFF54FF54CD5082E7A3CAD5B079
:103CD800FF74FF74FF95D58FF6B1E633938A8B8A0C
:103CE800DE31FF74FF53FF74FF947B8C49E3FF358B
:103CF800B4AF9B6AD50F6247B48DFE92FF93FF1451
:103D0800D5CFFFB4F6519BAA9B6CD4D08AE8BC8D62
:103D1800F6D2E7139B6AFEB7FF58FF17FF37F7176E
:103D2800E5B2DC6F9B29A48EEED4BD2F7286B46EEB
:103D3800BCCFAC8CD630FFB59CCDDE55F676CCEF3B
:103D480082C6BCCDAC2DB3EEABCB8AE8CCEFBCAB16
:103D5800F692EE34AC2DDDD2D4AF6A24B48ECCEF1B
:103D68008B489C4BC50DC40AE591FF35FF959C2AED
:103D780072E83963BD30BC6CEEB2CDB14861B06752
:103D88007905418390C4704280E38842A0C5B1A8F8
:103D9800BA2BD30FBBF100200000FFFFFFFFF77E17
:103DA800942FA48CC52F8309BCF08367CD90D5B31D
:103DB8007B0783498329BD0DB4ACE613938A9BCA5C
:103DC800BCCDDE10FF75F713C4EF7AC6A3EBDDF1A7
:103DD800FFB5FF94FF34C50DF6B2DE128B6A8B8AED
:103DE800DE31FF94FF73FF74FF3362C85A45FF3515
:103DF800AC4DAC0DDD2F7288AC4CF672FF93F6F427
:103E0800CD8FFF94EE30938AA3ADDCD08AE8BC6DE9
:103E1800F6B1E6F3936AFEB7FF38FF17FF58FF576E
:103E2800EE14DCB0A36A93EBDE32DE128328938AA9
:103E3800C4EFB48CC54DFFB5A4EDD5F3FF39DDB3A0
:103E48008B6993CABCAFA3ADC511830ABCD0B4EDCE
:103E5800DE32DE14BD12F718DD5293AB93CCC4F1F9
:103E680083495A84BD4FC46DC4ADFF96FFB5B4ED08
:103E7800832A49C5940CBC8CD5EFD6534963806519
:103E880050C331228802B10790C4A0C4B187A9E801
:103E9800B28BD3B0C49300000000FFFFFFFFFFFF09
:103EA800CE168BEACDB17AC9C551BD2D7B06FED79A
:103EB800BD0E7AE88309BCEDB4ACDDD1938A9BCA08
:103EC800BCCDDE10FF75EEB2B4AE7A86AC4CDDF137
:103ED800FFB5FFB4EEB2BCACF6D2D5B18329938A54
:103EE800DE31FF94FF73FF54F6B241C56AC7FF3550
:103EF80093EBCCF1DD2F7AC89BEBEE31FF74F6B370
:103F0800C56EFF94E5F08B49AC0EDCF08AE8B44D41
:103F1800EE91E6D3934AFED7FF38FF38FF58FF5893
:103F2800FEB6E511B3CC8349CDB0DE129BAA934906
:103F3800BC6DB4ADC52DFF54CE11B4EFFF3AEE9869
:103F4800B51073089C0D62279BCD518572A97B28FB
:103F58007307628841A5734A620651C54984AC70EB
:103F680093ED3182A4AFBC8EBC6CFF55FF75BD0EBE
:103F780093CC83AC838ABCAED5AFCE3294D0BC117F
:103F880020801860A8A6B845A8C5A8C4A946A1C796
:103F9800AAABAB2DBCB300000000FFFFFFDFFFDFC3
:103FA800FFFE83CA9C6D93CDA44DFF557AE5A42CE2
:103FB800F6D59BCB7AE9C50FB4CCCD7093699BCB72
:103FC800B4CDDE10FF75DE30B4AE7266B48DD5F0B8
:103FD800FF94FF94DE30BCACFEF2D590832993AAFF
:103FE800DE31FF94FF74FF54E63139438349FF14EF
:103FF8008BABDDD4DD2F8B0993ABE5F0FF94F69303
:10400800C54DFF94DDAF834ABC8FDD108B09AC0C26
:10401800EE71DEB2934AFED7FF58FF38FF37FF57DD
:10402800FEF7ED72C44E7AE8C54EDDF2AC0BAC0C6F
:10403800A3CBBC8DBCACEE92E6B3ACAEFF9CEEB9A4
:10404800A48F39625A47392359A438C341237B08BE
:1040580083698BAD7B8CBDB3C552938B49836A470B
:10406800628718607B29C4F0BC8DE672FFB7A44B49
:1040780093CC944E940DB48ED54EB54FA5B3FF5D39
:10408800842E086088A49865A0C4B105B126B1A89B
:10409800BAABA30CC55500200000FFFFFFDFFFFFF0
:1040A800F79D7BCA62C69C0E93CBFF35D5D06A6458
:1040B800B4CDA42D8B4BC50FBCCDC52F936A9BEBFC
:1040C800B4ADDE10FF75CDCFB48E7266BCCEDDF018
:1040D800FF94FF74D5AFC4ADFEF3CD6F832993AAC7
:1040E800D5F1FF74FF73FF75CD6F49A58B89F6D3A2
:1040F80083ABEE77D50F9B4A8B6ADDAFFF94EE72E8
:10410800C52DFF74D56F836AD531DD10934AA3CBD3
:10411800E651D652936AFED7FF58FF38FF17F73794
:10412800FF37F5D3D4D07AC8AC6BEE53AC4CC4AEE1
:104138009B69BCADAC4BEE73FF778BCAAC9072EA4F
:104148005A4749C451E641858B099B8C7247BCCEBE
:10415800C550C552BD73FFBAFF38D551A3AB936A9A
:10416800AC8F6A868308BCAFBC8CC5AFFFD8A40BE4
:10417800A44D83ABAD118B8CDD2FBD0FA4F1FFDEF9
:10418800E73B31A47A28610478839925B147C9A906
:10419800BA2AAB2DDE5900200000FFFFFFFFFFFF0A
:1041A800D67883CA83AA5A068329DE11FF56B4AD8E
:1041B8008BA782E7938BBCEEBCEDC50F936AA3EB8C
:1041C800B4ADDE10FF55C58EA44E6A25C4EFDE31AE
:1041D800FFB4F753C52DC4AEFEF3CD4F83098B6AE8
:1041E800CDB0FF53FF53FF75BCCD624893A9EE9144
:1041F80083ECF6F9D50FABAB832ACD2EFF74EE52C4
:10420800C50DFF53C50E838CE5F3DD0F9BAB9B8B70
:10421800E652CE119B8BFED7FF38FF17FF17F757D3
:10422800FF58FE55D4F18B099BEADDF2AC4CDD92C8
:104238009329BC8DBCCED5B1BD7041825A4651A5DB
:1042480061C5728751C56AEAD50FDD3282A8AC2BE9
:10425800C50EA40DC572FF77FF37EDD3B3EC82E826
:10426800AC8E8B4AA3ABA3CBBCCDC58FFF97A42B39
:10427800BCCF734AC5F593CDD50EB48EB533F75C74
:10428800DEDA73CDF79CB5948A8A690480A4C1CA22
:10429800BA4BB3F0EF1B00200001FFFFFFFFF79EB2
:1042A800BD94942BC52F61C56226CD6FE632EE947E
:1042B800B4CC6A64936BC50EC50EC50F938AA3EC84
:1042C800B4ADDE10FF55C56D9C0D6204C4EFE65118
:1042D800FFB4F712BCCCC4AEF6D2C52F7AC8830897
:1042E800CD8FFF53FF53FF54AC4B72CA93A9DE50D6
:1042F8008C2DFF5BDD50BC2C7AE9BCCDF733EE3159
:10430800C4ECF713BCCD8BACFE95DD0FA3EC932A60
:10431800E652C5D0A3CCFEF7F737FF17FF17F757BC
:10432800FF58FEB7DD31A38B8BAACD51B48EF6753D
:104338009BAB9BCBAC8DA42CCDF3396259C5932A8A
:10434800CC8FDD527AA86AC9EE13D531932A9389A6
:10435800CD4F834AE675F756F736FE55C44E72863A
:104368009BEC9BCCBC6F6A87BCCDCDB0FF97A40BF0
:10437800B4AE7BAB8C4F8BCEBCEEA44DBD94F7BED8
:10438800E6FB8C2FEFBCE7BCFF9CB4D28249918737
:104398009A2AC534EF7C08210021F7DEFFFFFFFFD2
:1043A800A4B1A48CC50EBCAF59E6B4CDAC8CCD6F0E
:1043B800D5CF9BCA9BCBBCCDC52EC50F938AA3EC8A
:1043C800B4ADDE10FF55C56D93EC59E4BCCEDE30BC
:1043D800FF94EED1B4ABCCCFF6D2C50E728772C7BC
:1043E800C56FFF54FF53FF549BEA7AEB8B89DE308D
:1043F8008C4DFF9CE570CC6D72C9B48BF6F2EE1152
:10440800C4CCEEF2B48C8BADFEF6DCEEAC0C8B09B2
:10441800E652BD8FABEDFEF8FF58FF18FF17F737D0
:10442800FF37FEF7E552B40D72C7C571B48EEE764C
:10443800BCCF83088B6A8B8A9C4D5A25AC4EDD1104
:10444800DCCFD4AF7AA872E9FF58D552AC0E8328D6
:10445800C5707309FFBBF777FF98FEB7E55272C8BE
:104468008BACA3EEAC2F2880B46CB50EFF779BEA1B
:10447800B4CF9CAF21024165B52E83AAA533EFDEE8
:10448800E6FBBD74EF7BE77BDF5BF7FEDE388AABCC
:1044980082AADEDAF7DE08000000FFFFFFFFFFFF59
:1044A800A46EC4EFBCCEC4EE41E593ADC4F0BCAC81
:1044B800BCED9BEB8B69BD2DD58FC50E938A9BAA4E
:1044C800BCCCDDCFFEF4C50C938C5225BCEEE63196
:1044D800FF94E64FBC6BBCCFF6B1C52F5A056A678F
:1044E800BD4EF6F2FF74FF54938B936A8B4ACDD37B
:1044F8009C6DFF78EDF3D4AE7AA8A42CDE52E65179
:10450800BCABF653A40CA42EF739D511BBCC8B2722
:10451800DE94B4EEAC6DFF38FF38FF18FF18FF17B4
:10452800FF37FF17EDF3CC4D7AC6BD718C2CFF5BBE
:10453800CD3341235A4672C8DE329389C4CFCCAEFC
:10454800C44CCCEF936B7AEAFF9BDE978BEC522638
:10455800730A4164940FA4B1B595F6B8EDB3A3AB53
:104568006A68A470942E49A37B88D4B0FF9693CA36
:10457800BCAFBD7058A37882B510720650A27B0BF1
:10458800CE98F7BDEF3BEF3BF6DAF71BFFBDCE98B1
:10459800B5B5F75DFF7E00000000FFFFF7DFF79D70
:1045A800A44EC50FC4EEC4CE5A8772C9C4F0BCACC1
:1045B800C4ED8B6A938ABD0DD5AFC50E9BCB93898D
:1045C800BCCDD5AFFEF3C50D830A5225BD0FE6114C
:1045D800FF94DE2FBC8CB48EEE50C54F62266A66FF
:1045E800B4EDEEB1FF74FF347AA7AC0D8B6AC571D8
:1045F800A48EFF99F654D4CF82E993AADE11E6106F
:10460800BCABE5D1A3EBB511FF79DD52C40C8B0728
:10461800DE73AC8DB48EFEF8FF38FF18FF18FF1755
:10462800FF37FF37F634D48E82C79C4D946EFF1A3D
:1046380069E638C07B4AC531FF5793CAAC0D9B4A1F
:10464800ABEBF656C53362AA9CB12922102020C1D3
:10465800732B10200820000000004163BC6EB42DAD
:104668005184ACD28BED8BAA6B06B3CDF6F48B6874
:10467800B48EC5B058C378A37C0C8186A0C680844C
:1046880059459450DEF9F7BCE73AEF9CD6D9EF9C30
:10469800FF9DF75DFF9E00200000FFFFF7DFEF3B67
:1046A8009C4DC50FC4EEBCCD62A87B0A9BABC4ED84
:1046B800C52F8B6A938AC50DDDF0C50EA42C8B48D7
:1046C800BCEDCD4EFED3C50D6A675225BCEFE5F0B3
:1046D800FF73D5CEBC8C9BECD5CFC52F7AA872873B
:1046E800AC6CE650FF74F6F282A7BC8F82C8B4AFF8
:1046F800ACCFFFB9F6B5D50F9B6B8B28D5B0DDF0E5
:10470800BCABCD2F8349BD51FF99E592C42C8306DC
:10471800DE739C0BC4F0FEF8FF38FF17FF18FF1775
:10472800FF37FF58FE75DCF082A8A44E942D82C98D
:104738008A88B48F7AE8C510EEB55A248309CD3239
:10474800FF39DE365A89082100001040736C52691F
:104758004A485AEB632D31E7004108009BCCBCB0B6
:104768002880B51372C9AC4D7B479B6BE694834890
:10477800B48ED6125904808372E98145A043A86497
:10478800990568A35985B574EFBCDF5AEFDCEF5C77
:10479800EEDBFF5DEF7D00200000FFFFF7FFE6FA8C
:1047A8009C2DC50FBCCDBCCD5A66A44E7AA7B46B60
:1047B800D5918B8B93ABBCEDE631BCEDAC6D83072B
:1047C800BCCDC52DF693BCED61E55225BCCEDDB060
:1047D800FF53CD8DBC8D7B09C54DC52F8B2A830911
:1047E8009BEBD5D0FF95EEB18AC7C48F82A7AC4D9D
:1047F800ACCFFF58FEF7E5B2C44F7A87BCEECD4F79
:10480800BCACC50F7B28CDF4FF57EDF3BC2C8B480F
:10481800EE95938AD552FF18FF38FF18FF17FF1738
:10482800FF37FF58FEB6DD31930A8B8B6A67A38C7E
:10483800DD12C4B07AC7B46D93EB6246E637EEB9C1
:104848008BCD188000000022000018E49492843078
:104858004A69BE38C69AB65A320A08208B8BBCF110
:104868002881C5956A87BCAE93EA8B2AD5F28B4915
:10487800BC8DE693618580836A2668C3A105A90576
:104888009862A0A490C57083938DE6FAEFBCEF3BC5
:10489800FF7DE6FBDF1B00000000FFFFFFFFD6984F
:1048A8009C2CCD2FC4CDBCCD5A65A42E9BAB7AE6EB
:1048B800BD0F93AC9BCCBCCDEE71BCEDB48D82E743
:1048C800B4ADC50DEE52BCCD62065A66B4AED54F36
:1048D800FF34C56DBC8D5A46BD0DC50F934A9B8CE0
:1048E8009349CD4EFF75EEB182A7CCF093099BEDAD
:1048F800ACEFFF9AFF38E614D4F182C8BCCFCD4F95
:10490800BCCDC50F836AEF18FF58F634A38A830815
:10491800DE349349DDB3FEF8FF38FF18FF17FF17A1
:10492800F737FF58FED6E551932B93AC8B6BDD32EE
:10493800D490C48F72867AE7ACEFB511BD54316557
:10494800000000400082004208A4000110A33A08B9
:104958005B4DBE59ADF8BE9B5B6F0841A44FC53295
:104968003943D6376A67BC8DA42B72A8B4CE8B495D
:10497800BC6DEED46A06886349437904A08398A382
:104988009924A0E5A864B04570437A8AD6B9F79C03
:10499800F73CD679CE5808000000FFFFFFFFD67815
:1049A8009C4DCD2FCD0EBCCD72E77B09C4F07AC6E5
:1049B800836993AC938BC4CDEE92BCEDB4AE8308FF
:1049C800AC4CBCEDDDD1B4AC6A6762A7B48ECD0E39
:1049D800FF54CD6EBCAE41A4B4CDC50F934AB40EFE
:1049E8008AE8BCADFEF3EEF26A46CD31936B8B4A92
:1049F800A48FF739E676C5318B2B49425A0472C722
:104A0800728683295A25C5B4F718F676AC0D8B8AB9
:104A1800BD318B29EE14FF79FF38FF37FF17FF37B9
:104A2800F717FF57FEF7E5719B6B72C8A42DCC8F63
:104A3800DCD0BC4E5182AC4ECDF4398410610000FC
:104A48000060006000810062006110C30000002067
:104A58009D13CEBABE38B6387C520800CD93B4D078
:104A68005A47D6576A87C4AEB46C6AC893AA9BAB38
:104A7800B44CEED36A879064586190E4A8C5A0A4AA
:104A880098C4A0A4A8C5A0C5A8C74862CE78F7BD99
:104A9800C5D7BDD6CE7908000000FFFFFFFFEF1B8A
:104AA800ACAFB46DC4EEC4CE8BAA6226C510A42BDD
:104AB80072E772A98B4ACCEEF6B2C50EBCCE9369EA
:104AC8009BCABCEDD570B48C72C86AC7B48ECCCD05
:104AD800FF34C54EB4AE3142A44BC4EF8AE8C4706B
:104AE8008AE9AC4CDE30F6F27B08C5328B4B624764
:104AF80051E56B095A2651A459E649A45225AC8EB2
:104B0800B4B09BCC390241C56AA8938C8B4B8BAC53
:104B18009C4E9BABF676FF58FF38FF37FF17FF38E0
:104B2800F737FF58FF17E5929B8B72C7CD91D4F0EA
:104B3800CC4E93298309AC6F5267104000000020C7
:104B480008C200C1008008C308E308E30060004011
:104B5800CE98FFFEF7DEF7BE8C921860F697B4CFBA
:104B680083CCBD946AA7C4CEC4AD732A7B08B44E67
:104B7800BC4CE69272C8904498A49863A084A0C5DF
:104B8800A084A864A0A49124988671E8E77BC5D680
:104B9800C596BDF7847108000000FFFFFFFFFFFE08
:104BA800BD119BAABCADC4EF940B59E4BCAFC52F93
:104BB800A44D38E2938BC4CDF6B2C52EBCEF9BABA7
:104BC8009369BCCDC52FB46C7AC96AC7B46DC48C5F
:104BD800FF14C52DB48E290293C9C4EF82C8D4D15D
:104BE8009B2AAC0BCD6EEED149C46AC841434984B7
:104BF800312341C551E6728872AA62A829016AA8C0
:104C08006A876206414362885A4759C638C23102E8
:104C18005A05A3ECFF17F736FF37FF38FF17FF5881
:104C2800F737FF58FF37E592938B6AE7F6B6EDD36F
:104C3800C3EDD55293CC622731630000086208A304
:104C4800006000A008C10081090208C1216300209A
:104C58008C6FFFBDFFFEFFFEAD5549C5FF18BD10A7
:104C6800C5B3B5327B09C4CEC48D734A7286C4B04D
:104C7800BC4CE65173099044A0C4B064B045A0850B
:104C88009906A0E5A063B0C47003BD13D73AAD136D
:104C9800D5968C50849100000020FFFFF7BFFFFFDE
:104CA800FFFFB57483AC9C4EACED5A059BABCD0EA3
:104CB800BCED8B698308C50FF6F4C50FBCCCB46B8B
:104CC80072A8C531BCACB42B7B096A87AC6DBCCC6F
:104CD800F6B2CD6E938A61E59B6ABC8F82C8D51205
:104CE800BC508B0A834B738A2923494561C64964A2
:104CF80061E5BC0EC42DD510DCF0E5319B4A938AE2
:104D0800BD309BCBA38AE531D48DD53193AD6248B4
:104D180030C193ABFF18FF38FF17FF37FF37FF5736
:104D2800FF17FF17FEF7E5B293ED8349FF17FF362C
:104D3800D633FF59730A41A610420000088108E2E1
:104D480000C100A1090200C2112309E4126608E2A9
:104D580020E3F77CFFFDFFFCA4F1944DFF58DE1320
:104D6800EEB6ACAE8328C50FD4D062878368BD0D7C
:104D7800B42CD5B293E98042A8A4A8A498C490C33F
:104D880098C3A0C5A0A498436249EF7CA533A57435
:104D9800A5747ACCA3D000600000FFFFFFFFFFDFFF
:104DA800FFFFFFDECE16734A7B897B0982E9BCAD23
:104DB800BCED9C0C8329CD2FEED3BCCECD2EC4EDFB
:104DC8007AC8B48EB4ACB42B832A72A89BEBB48C8B
:104DD800E610DDD09BCB7AC98309CD72832ABCF15A
:104DE8008B0A2000416283AB6AC99BCDE5F6938CA0
:104DF8006A06CCB0D4F0C48ECC8ECC6ECCAF7266C2
:104E0800C5308B699B6AD48FDCADCCAF9BAD7B0A78
:104E1800834AD592FF38FF18FF37FF37FF37FF5710
:104E2800FF17FF17FEF7E5D38BCC93CBFF99F71647
:104E3800FFB9C59220A0188118A22124004000C102
:104E480000C1092300C200A221A51A6722E929E6A8
:104E58001881C5D6FFFEFFFDBDB4CDD4FF38FF17BE
:104E6800FF79940C9BEBB4ADCC8E7B499C2ACD8FFB
:104E7800A3CBD5B19C6B7842A884A083A0E490A36F
:104E8800A0E4A084A0C57863B554B574A554AD74E6
:104E980072AB932E9C1000200000FFDFFFFFFFDFA6
:104EA800FFFFFFFFFFDEDEB9840D62895184BCEF8E
:104EB800B4EE93EC7AC7CD2FDE52A44CD56FCD6EED
:104EC80083299BECBCEDB44C834A7AE98B8AC50EE6
:104ED800DDCFDDD08B498B4B8369BD514A0549A491
:104EE80051837AC88B6ACDB2B46EA44DE6559B6BDC
:104EF80061A4B44EC4CFD4CFD4CFC44EC48F82E8FB
:104F0800A42D8B6AABCBED32D46CDD10ABED59C55B
:104F1800934BE614FF18FF59FF37FF37FF37FF376A
:104F2800FF17FF37FEF7E5F393ECB4F0FF79FF17AF
:104F3800E6757B2993ED08007BCE52CA0040092311
:104F48000923092200C108A11964334B3B8C2A07A5
:104F580000009491FFFEF7DDEF19FF59FF17FF37A7
:104F6800FF797B69AC8EBCCEC48D9C0DB4EDE67226
:104F78009BCAC550B4EE7042A8C4A063A8C498A345
:104F8800A0A4B0A580837207C637ACF3A573836D60
:104F980089E9A34E8C5000000000FFFFFFFFFFDFF0
:104FA800FFFFF79EF7BEFFFFD6D9524928A18B898C
:104FB800B4EF9C2D7286CD2ED61193CAD56FDDF035
:104FC80093AB8B6AC50EBC6D7B098B6B7AE8BCEE24
:104FD800C50DDDD193AA9BED7B495A4628E1ACB0BB
:104FE800DDD4CCF07A86B48EBC8D8BCAEEB6BC6E9E
:104FF80061838B6AAC8E9B4A8AE89B4A82A8728836
:105008004122496382A8A34BCC2BD4EF9B8B492226
:10501800B46EFEF7FF17F6F7FF37FF37FF37FF3796
:10502800FF37FF37FEF6E5F393ECE676F6F7FF5821
:10503800D5F3DE15836B30E2C6575B0A004019C50D
:1050480019E50102090208A111244C0E54B05BAD08
:105058005AEBC5F7FFFEFFFEFF7AFF38FF17FF3751
:10506800FF597B49A44DBCAEC4ADAC8EC52EFF34F0
:10507800A42BBCEEBD6F6882A8E4A063A083A0E463
:10508800A063B0C668A39CB0AD53B5947BAD616610
:10509800BA8D9AED949100200000FFDEFFFFFFDF3C
:1050A800FFFFFFFFFFFFF7BFFFFF736D62684981D6
:1050B800A48EB4D06A86CD4ED5F193CACD6EEE7269
:1050C800A44D7B28BCCDBC6D72E88B8B59E4B4AE83
:1050D800C50EE61293AA7AC959A372A8730AD5D540
:1050E800EE55CCCFB3CB8A87BCAE7B48EED7FED883
:1050F80082C983ABF739F677EE77F677EE57E6573E
:105108009C2F51E59BACBC6FAB89B42D7AA851A4F8
:10511800D552FED7FEF7FF59FF37FF37FF37FF3766
:10512800FF37FF37FED6E613ACAFF6F8FF18FF38A7
:10513800FF18EEB74963A44FEF9B7BEE00802A2748
:1051480032E909A400E110C109233B8C6D73BEDA72
:10515800F7BEFFFFF7BDFFFEFF59F6F6FEF6FF5755
:10516800FF587B29A42CBC8DBCCDB48DCD4EFFB58A
:10517800BCCEAC6CC5D168C2A0A4A084A083A8E5AD
:10518800A0A588848249B616B553844F51449167C7
:10519800AA6B8A8BACD300400820FFFFFFFFFFFFFC
:1051A800FFFFFFFFFFFFFFFFF7DF83AEACB051C289
:1051B8007B29A44F72A7C54ECDF193A9CD4DF6D347
:1051C800B4AE8349AC4BC4CF73097B094962B4CFF1
:1051D800C50EB48C6A866226D4EF8AE97B2BB4D1DB
:1051E800FF18D530CCAF92C9AC8E7B499C6FBD33CC
:1051F8005A48186039A539643963396462686ACADB
:1052080062CA41C5A490FF1BFEB7EE568B8C830A79
:10521800E634FF37FF58FF38FF37FF37FF37FF37D0
:10522800FF37FF37FED6EE54DE34FF18FF38FEF79F
:10523800FF58A44DA42DFF18F7BBB59300402A27AB
:10524800542E3BAC00E111020923336B75F4D7FEF1
:10525800FFFFEF9DF7BDFFDDFF38FF37F6D5FF579E
:10526800F73872E7B4AEC4CDB4ACB48DDD8FFFB5FA
:10527800CD90A40ACE326943A083A0C4A0A4A08480
:10528800A0E56083B4D2B5D59CD152277105A9A9F0
:10529800922982CBBD3500200000FFFFFFFFF7BE3B
:1052A800FFFFFFFFFFFFFFFFFFFF838DAC8F83280A
:1052B80051E47B4C6A87C54ECDF18B89C50CFF1331
:1052C800C5309C0B9388CD107B297B2A51A4A42D33
:1052D800A42B8B487AC78B8BE5308AE8834C940DD6
:1052E800FF59E633C4F0BC9141C5628920A2000091
:1052F800002000000000004000200860080008208E
:105308000020000018C251E7940DC594ACF2DE36B7
:10531800FF38FF17FF37F737FF17FF17FF57FF371C
:10532800FF37FF37FF17FED6F717FF58FEF7FF17AF
:10533800FF38E634DE13FF18F79AEEF918A119A51D
:105348005CB0651101830060114343EC6DB39E3678
:105358007C507BEEFFDDFF9CFEF7FF37FEF6FF5823
:10536800F7186AE8BCCEC4ADB4CBB46CEDD0FF94EA
:10537800E6739BC9D67269A4A08498C4A0C4A0444B
:1053880088A47A89CE16ACD273CD6125A98899678D
:1053980082697B4CB53500000021FFFFFFFFFFFF4E
:1053A800FFFEFFFEFFFFFFDEFFBEA470A40DAC6C86
:1053B80051E46ACA49A4CD8FDE538B89C50CFF140A
:1053C800CD91AC8D7AE6CCF07B298BAC6A47938B78
:1053D800AC6DBCCEAC4D8B4AE50FBC6E62686B4AB7
:1053E800FF99FF5793CB390300005A2828E400217E
:1053F80000611062002100810080002008627C109A
:105408008C9229A600000800188029232903ACF1F2
:10541800F6B7FEF6FF57FF78FF17FF17FF57FF375E
:10542800FF37FF58FF37FF17FF58FF37FF37FF17C2
:10543800FF17FEF7FF17FF17F739FFDC39A5090338
:10544800546F7E1443AB090122065CCF5D516CF0AA
:1054580021642122FFDCFF9CFEF6FEF5FF36FF17D4
:10546800E6D77308B4ADCCCDBCECB44CF5F0F7730B
:10547800F6F593A9D67369E5A06390C3A0E4B0A537
:105488007863B512B5F6AC3163AC8967A0C699C824
:105498007A287B8DA51410010000FFFFFFFFFFFF96
:1054A800FFFFFFFFFFFFFFFFFFFFAD5483ABC50EFC
:1054B800936841225206B551E6928368BD0FFF14E6
:1054C800E630B46C9BCB9BCC93CE6AC48BCB72CBAF
:1054D800C4CEC4CCB42C8B29F50FD4EF7B2949E575
:1054E800ACD252490820002000000040194300C1F6
:1054F80008A1006000C100E100C108C1002031C757
:10550800C659BE384AAA00414986C554C5948BEC91
:10551800B530F6F7FF17FF38FF37FF37FF37FF378C
:10552800FF37FF37FF37FF37FF37FF37FF37FF37C3
:10553800FF37FF37FF37FF37F738FFBB8C6F006047
:105548003AEB6D3265724CEF4D714CF06D746CB185
:1055580008E25AC9FFDBFF38FF38FF17FF37FF386B
:10556800E6967308BCAECCEDCCECB44BE612FF5417
:10557800FF539C2AD5B37AC8886298E4A88490A47B
:105588006A47D6B9ACD36B6DA32B9125A0E691875A
:105598006A287B6DACF400000000FFFFFFFFFFFFEF
:1055A800FFFFFFFFFFFFFFFFF77EE6FB7329C50E36
:1055B800A40B6A673922BD50E6B28348BCEEFEF3FD
:1055C800F6B2BCEDB46E8B699BED51E393EC72CAF5
:1055D800AC2DC4ACBCCE7AC8CC2DFE76BD5220E230
:1055E80000000800000042890820006008E20080EE
:1055F80008A108A100C100C100A1112311240000C5
:10560800740FDF5CBE388C9130A251C6BD52FFBA10
:10561800FF58F717FF79F6D6FF37FF37FF37FF3701
:10562800FF37FF37FF37FF37FF37FF37FF37FF37C2
:10563800FF37FF37FF37FF37F717FFBACE5600603F
:1056480019855C4F75726D72655175B37D53430B47
:1056580000406309FF59FF38FF38FF17FF17FF386D
:10566800E6977308BCCECCEDD56EB44CD5B1FF54DB
:10567800FF74A44BCD928B4A8862A0E5A8C57062DE
:10568800AC90D6B97B6D8C5189E790E5A9068987DE
:105698007249838DA4F400000000FFFFFFFFFFFFA5
:1056A800FFFFFFFFFFFFFFFFFFFFE6FC62A8BD0F44
:1056B800B48D9BAC51C4C52FE6B27B27B4CEF6B3EC
:1056C800FF13C50ECD7193899C0D41637B499C0DD9
:1056D80082C9C4ADC4ED72A8C44EE5D4ACD10020D3
:1056E800004118E48C928CB20000088100E100802F
:1056F80000A108C200C10102090200C21123004032
:105708004A89F7BDF79CE73AD5D5940D7308A48D5F
:10571800F6F6FF79FEF7FF38FF37FF37FF37FF3719
:10572800FF37FF37FF37FF37FF37FF37FF37FF37C1
:10573800FF37FF37FF37FF37FF37FF58FFDC7BADF9
:10574800002032685C2E6CAF648E5C0C328710E1EE
:1057580031A4BD72FF9AF6D6FF38FF17FF17FF383E
:10576800E6977B29BCCECCEDE5F0B46CC54FFF5471
:10577800FF94ACCCC531A40D7841B8C6906369A537
:10578800EF1AB5946B4CA49278A398A4A9268966BD
:105798007269838DA4D300000000FFFFFFFFFFFFA5
:1057A800FFFFFFFFFFFFFFFFFFDFFFFF9CB19C2C08
:1057B800C510A42E6225CD2EEED38348B4CEE65173
:1057C800FF54C50DE633B4CD8B8A51E66287BD30F0
:1057D8006A47AC2CCD4F72C9B42EB4B128C200218F
:1057E80000007431DF7E638E000008C201020102EE
:1057F80000E108C208E209021143118409640902A0
:105808000060D678FFFDFFDCFF9AF738E695E6746E
:10581800F6F6FF38FF38FF38FF37FF37FF37FF3717
:10582800FF37FF37FF37FF37FF37FF37FF37FF37C0
:10583800FF37FF37FF37FF37FF37FEF6FF39CE1543
:1058480010800040196321843A4542456B6AB5933C
:10585800F739FF9AFF17FF37FF38FF17FF17FF3891
:10586800DE767308BCCECCEDEE31B46CC50EFF54B9
:10587800FF94BD4EACAEAC8E7062B8C670639C909F
:10588800F79C7BCD94D18B2C8863A8A5B127814642
:105898006A487B6DA4D300000000FFFFFFFFFFFFF5
:1058A800FFFFFFFFFFFFFFFFFFFFFFFFCE376AE8A5
:1058B800834A93CD72A7BCCCF7148348B4CFDE31AA
:1058C800FF75BD2DEE73DE318B8972C95A66C5919D
:1058D8008B6A82C7CD4F834A9BAD7289080000004E
:1058E8004ACB6BF0CEBB6BCF000008C209430984DA
:1058F800094300E208E200E200E2224722673AC9CF
:1059080000209490FFFDFFFDFFBAF737FF98FFB91D
:10591800FF17FF37FF79FF18FF37FF37FF37FF37CC
:10592800FF37FF37FF37FF37FF37FF37FF37FF37BF
:10593800FF37FF37FF37FF37FEF5FF58FF38FF59AE
:10594800DE56BD93C5D4CE36E6D7FF79FFBBFF3808
:10595800F717FF38FF37FF16FF38FF17FF37FF38F5
:10596800D63572E8BCCECD0DE631B46DBCEEFF1372
:10597800FF53CDB0A44CB4EF78C3A0647986DF5B45
:10598800CE78736CBDF56925A0A4B0A5B106816673
:105998006A277B4CACF400000000FFFFFFFFFFFF0D
:1059A800FFFFFFFFFFFFFFFFFFFFF7BFFFFFC5D5AB
:1059B8006AC9628951E5BCEDFF557B28B4AFDE1199
:1059C800FF95CDAFDE31F6F3AC8C834A3942D6125F
:1059D800C5506A459C0BA48D832A8B6C1000084126
:1059E800B6187C719D559D140020090311C51A260F
:1059F80019C500C100E200E200A12247332A3AE9B2
:105A080000405268F77CFFFDFFBAFF79F717FF17D0
:105A1800FF58FF17F6F7FF59FF37FF37FF37FF37F4
:105A2800FF37FF37FF37FF37FF37FF37FF37FF37BE
:105A3800FF37FF37FF37FF37FF17FF57F6F7FF1816
:105A4800FF59FFBBF6F8FF9AFF79FF17FF17FF58BA
:105A5800FF79FF37FF37FEF6FF38FF17FF37FF38AC
:105A6800D63572E8BCCECCEDDE11AC4CBCEEF6D22D
:105A7800FF53DE31940BB52F70C378639BCEF7FECE
:105A8800B554A512BD327062A0C5B085A92689A7F4
:105A98006A48834CACF400000000FFFFFFFFFFFFE3
:105AA800FFFFFFFFFFFFFFFFFFDEF7FFFFFFFFFE28
:105AB800EF3CBDB75A68ACCEFF556AC6AC8EDE1156
:105AC800FF75EE92D610FF74D5B08BAA28A0B50E3C
