:020000040800F2
:100000000080012091460008B52C0008B72C00089C
:10001000B92C0008BB2C0008BD2C00080000000013
:10002000000000000000000000000000BF2C0008DD
:10003000C12C000800000000C32C0008C52C0008DB
:10004000E1460008E1460008E1460008E1460008F4
:10005000E1460008E1460008E1460008E1460008E4
:10006000E1460008E1460008E1460008E1460008D4
:10007000E1460008E1460008E1460008E1460008C4
:10008000E1460008E1460008E146000800000000E3
:10009000000000000000000000000000E146000831
:1000A000E1460008E1460008E1460008E146000894
:1000B000E1460008E1460008E1460008E146000884
:1000C000E1460008E1460008E1460008E146000874
:1000D000E1460008E1460008E14600080000000093
:1000E000E1460008E1460008E14600080000000083
:1000F000000000000000000000000000E1460008D1
:1001000000000000E1460008E1460008E146000862
:1001100000000000000000000000000000000000DF
:10012000E1460008E1460008E1460008E146000813
:10013000E146000800000000000000000000000090
:10014000000000000000000000000000E146000880
:10015000E1460008E1460008E1460008E1460008E3
:10016000E1460008E1460008000000000000000031
:10017000000000000000000000000000000000007F
:1001800000000000E1460008000000000000000040
:04019000E14600083C
:1001A0000348044B834202D0034B03B11847704706
:1001B0009800002098000020000000000548064B31
:1001C0001B1AD90F01EBA301491002D0034B03B155
:1001D0001847704798000020980000200000000099
:1001E00010B5064C237843B9FFF7DAFF044B13B17F
:1001F0000448AFF300800123237010BD9800002055
:1002000000000000E446000808B5044B1BB1044997
:100210000448AFF30080BDE80840CFE700000000CD
:100220009C000020E446000870B50F4B0F4DAB4218
:10023000A3EB050607D0B610002455F8043B0134A3
:100240009847A642F9D804F04DFA094D094B5E1BB8
:10025000AB424FEAA60606D0002455F8043B013411
:100260009847A642F9D870BDDC6A0008DC6A00082D
:10027000DC6A0008E06A0008036A2DE9F04184683E
:1002800080460E46002B3BD0A3891B0717D5236958
:10029000ABB1013EA36816F8015F013BA360EDB16D
:1002A000002B07DAA7699F4222462946404610DC08
:1002B0000A2D0ED023685A1C22601D70EAE72146E1
:1002C000404600F08BFB0028E3D04FF0FF30BDE844
:1002D000F08100F087FF0130DCD1F6E7002B09DA6E
:1002E00022460A21404600F07DFF0130EDD00A2071
:1002F000BDE8F08123680A22591C21601A70F6E7D4
:1003000000F0F4F8C0E700BF024B01461868FFF7A1
:10031000B3BF00BF0000002000207047024A03491D
:10032000034800F039BB00BF50000020050700085B
:10033000040000200C4B4168994210B5044601D0DE
:1003400000F0E0F9A168094B994202D0204600F084
:10035000D9F9E168064B994204D02046BDE8104027
:1003600000F0D0B910BD00BFB40000201C01002077
:1003700084010020002070472DE9F8432A4C2B49C6
:10038000DFF8BC90DFF8BC80294FC4F83811002595
:1003900004230822294604F15C00264EE360C4E9E8
:1003A0000055C4E90455A5606566A56100F0C6F86E
:1003B000214B63670822294604F1C400C4E90849B7
:1003C000C4E90A87C4E91A55C4E91E552567C4F86B
:1003D000CC50C4F88050266300F0B0F8174BC4F836
:1003E000DC30294604F16803082204F59670C4F84D
:1003F0008830C4E92398C4E92576C4E93455C4E9B2
:100400003855C4F8D850C4F83451C4F8E85000F056
:1004100095F804F1D003C4E93D98C4E93F76C4F8E7
:10042000F030BDE8F88300BFB40000201D030008D1
:100430001113000835130008090001001200020022
:10044000A9120008D1120008F8B5254BD3F83831AD
:100450000646002B3CD0234FD7E90134013B04D59D
:100460001DE05A1C04F1680419D0B4F90C50013B8A
:10047000002DF6D11C4BE360C4E90155C4E90455D5
:1004800065662560A5610822294604F15C0000F03C
:1004900055F8C4E90D55C4E912552046F8BD3D682C
:1004A0000DB12F46D8E74FF4D671304600F096F9DB
:1004B000044680B10423C0E900530C302946A060F3
:1004C0004FF4D072254600F039F83C602F46C3E760
:1004D000FFF752FFBFE70C2338603360DDE700BF52
:1004E000B4000020500000200100FFFF036A03B1A8
:1004F0007047044B044AD3F838310262002BF7D11D
:100500003AE700BFB400002035030008704700BF81
:10051000704700BF024A0349002000F03DBA00BF07
:100520005000002019030008024A0349002000F08F
:1005300033BA00BF5000002075030008830730B5B0
:1005400047D0541E002A3ED0CAB2034601E0013C07
:1005500039D303F8012B9D07F9D1032C2CD9CDB247
:1005600005EB05250F2C05EB054535D9A4F1100247
:1005700022F00F0C03F1100EE6444FEA121C1A464B
:10058000C2E90055C2E9025510327245F8D10CF1AA
:10059000010214F00C0F03EB021204F00F0C13D045
:1005A000ACF1040323F003030433134442F8045B67
:1005B0009342FBD10CF003042CB1C9B21C4403F8E4
:1005C000011BA342FBD130BD64461346002CF4D17D
:1005D000F9E703461446C0E71A46A446E0E700BF21
:1005E000B1F90C302DE9F0411E070C4680463DD490
:1005F0004A68002A56DDE56A002D34D00022D8F87A
:100600000060C8F8002013F48052216A57D10123FA
:100610004046A847451C024666D0B4F90C30E56A4E
:10062000216A580705D56368D21A636B0BB1236C36
:10063000D21A00234046A847431C42D000236360DF
:1006400023692360A389DF0400D56065616BC8F866
:10065000006041B104F14403994202D0404600F0E9
:100660003DF9002363630020BDE8F0810E69002E90
:10067000F9D09B070D6808BF4B690E6018BF0023B7
:10068000AD1B8B600BE02B463246216AA76A4046C1
:10069000B847B0F1000CA5EB0C05664406DD002D53
:1006A000F1DCE0E70A6C002AA5DCDCE7B4F90C30E9
:1006B00043F04003A3814FF0FF30BDE8F081626D4D
:1006C000AFE7D8F80010B4F90C301D29F0D80C4A67
:1006D000CA40D507ECD52269226000226260DA04A4
:1006E000B4D50029B1D0B1E7D8F80030002B94D0B0
:1006F0001D2B01D0162BD9D1C8F80060B3E700BF7D
:10070000010040200B69B3B110B5044682B008B1B6
:10071000036A5BB1B1F90C3013B9002002B010BD0F
:10072000204602B0BDE81040FFF75ABF0191FFF725
:10073000DDFE0199EEE70020704700BFB8B138B583
:100740000D4A0369156804462BB10DB12B6A53B1EC
:10075000B4F90C300BB9002038BD21462846BDE85D
:100760003840FFF73DBF2846FFF7C0FEF0E7034AD9
:100770000349044800F010B9000000205000002098
:100780000507000804000020014B1868704700BFEF
:100790000000002070B5104E336805460C46B3B11A
:1007A0002146284600F06EFD431C0CD0C41C24F0EA
:1007B0000304A04205D0211A284600F063FD013051
:1007C00001D0204670BD4FF0FF34204670BD194661
:1007D00000F058FD3060E3E7F00100202DE9F84318
:1007E000CD1C25F0030508350C2D38BF0C25002D38
:1007F000064618DBA94216D8DFF8DC8000F0A4FA20
:10080000D8F80420A2B1144603E0636822467BB105
:100810001C4623685B1BF8D40B2B1FD894426368DB
:1008200054D053600CE00C2333600020BDE8F88303
:1008300029463046FFF7AEFF431C044619D0056039
:10084000304600F083FA04F10B00231D20F007006E
:10085000C21A1CBF1B1AA350BDE8F8836119944249
:10086000256014BF5160C8F80410635163684B6081
:10087000E6E7D8F804701FB33C467F68002FFBD131
:1008800023683946304604EB030900F0FBFC814540
:1008900016D12368ED1A29463046FFF77BFF013059
:1008A0000ED02368D8F804202B442360536883B10A
:1008B000A34203D01A465B689C42FBD10023B0E7F9
:1008C0000C233360304600F041FAAEE7C8F804303C
:1008D000B6E7C8F80470B3E7F0010020002950D053
:1008E00038B551F8043C0C1F002BB8BFE41805467E
:1008F00000F02AFA274A13682BB1A3420CD92168C9
:10090000601883422CD0636028461460BDE83840EC
:1009100000F01CBAA3420FD81A465B68002BF9D12D
:1009200011685018844217D02CD363605460284655
:10093000BDE8384000F00ABA11685018A04214D03F
:1009400020D8216860188342EFD118685B6808449A
:10095000C4E900035460EAE723680B441360E6E748
:1009600018685B6808442060CDE72068014450188F
:1009700083421160DBD1D3E900040144C2E90014D1
:10098000D5E770470C232B602846BDE8384000F0BF
:10099000DDB900BFF40100202DE9F8430746884681
:1009A00016464FF00009D6E90154013D10D4A38941
:1009B000012B08D9B4F90E3001332146384602D054
:1009C000C04749EA0009013D6B1C04F16804EED1FF
:1009D0003668002EE7D14846BDE8F88338B52F4B7E
:1009E0001B6805460C4613B11A6A002A4BD0B4F9AD
:1009F0000C3018071CD5226922B313F0010107D06F
:100A0000616900204942A060A1613AB1002038BD6F
:100A1000980758BF6169A160002AF7D1190658BF2D
:100A20001046F4D543F04003A3814FF0FF3038BDAA
:100A3000D9062CD55A0712D4226943F00803A381A2
:100A4000002ADAD103F42071B1F5007FD5D0214618
:100A5000284600F07DF9B4F90C302269CDE7616BCE
:100A600051B104F14402914204D02846FFF736FF09
:100A7000B4F90C300022626322690021C4E900212C
:100A800023F02403D9E71846FFF730FDAFE709222A
:100A900043F040032A60A381C7E700BF00000020A5
:100AA0002DE9F043524CD4F8008083B004460E4642
:100AB00017461D46B8F1000F03D0D8F82030002BA0
:100AC0007ED0022F03D0012F7ED8002D7CDB214663
:100AD0004046FFF717FE616B41B104F144039942B0
:100AE00002D04046FFF7FAFE00236363B4F90CC05E
:100AF00000231CF0800FA361636041D12CF44A6C89
:100B00002CF0030C022FA4F80CC047D001AB6A46AE
:100B10002146404600F07EF9A3891843A081D5B153
:100B2000D6B1D8F8203023B3B4F90C302660012FA9
:100B300004BF43F00103A38113F00802C4E9046574
:100B40001BD0DB073AD500236D42A360A5610020CE
:100B500003B0BDE8F083009D284600F0E5F80646A6
:100B6000A8B3A38943F08003A381D8F82030002BD9
:100B7000DAD14046FFF7BAFCD6E7A2600020E7E7EB
:100B800021694046FFF7AAFEB4F90CC02CF44A6C68
:100B90002CF0030C022FA4F80CC0B7D1002004F1F4
:100BA00047034CF0020C00210122C4E90432A4F8EE
:100BB0000CC0A160236003B0BDE8F083A560DDE751
:100BC0004046FFF793FC7CE74FF0FF30C0E7DDF8CD
:100BD0000090A94506D0484600F0A6F8064608B1A0
:100BE0004D46BEE7B4F90CC04FF0FF30D7E700BF69
:100BF00000000020844641EA000313F003036DD196
:100C0000403A41D351F8043B40F8043B51F8043BCF
:100C100040F8043B51F8043B40F8043B51F8043BD6
:100C200040F8043B51F8043B40F8043B51F8043BC6
:100C300040F8043B51F8043B40F8043B51F8043BB6
:100C400040F8043B51F8043B40F8043B51F8043BA6
:100C500040F8043B51F8043B40F8043B51F8043B96
:100C600040F8043B51F8043B40F8043B51F8043B86
:100C700040F8043B51F8043B40F8043B51F8043B76
:100C800040F8043B403ABDD2303211D351F8043B16
:100C900040F8043B51F8043B40F8043B51F8043B56
:100CA00040F8043B51F8043B40F8043B103AEDD2C5
:100CB0000C3205D351F8043B40F8043B043AF9D216
:100CC000043208D0D2071CBF11F8013B00F8013BE9
:100CD00001D30B8803806046704700BF082A13D3F6
:100CE0008B078DD010F003038AD0C3F10403D21A0E
:100CF000DB071CBF11F8013B00F8013B80D331F842
:100D0000023B20F8023B7BE7043AD9D3013A11F8C1
:100D1000013B00F8013BF9D20B7803704B7843702C
:100D20008B78837060467047024B01461868FFF766
:100D300055BD00BF00000020024B01461868FFF7B8
:100D4000CDBD00BF00000020704700BF704700BF4E
:100D500070B5B1F90C300C46990796B007D504F17F
:100D600047030122C4E90432236016B070BDB4F910
:100D70000E100029054629DB6A4600F05DFF0028B9
:100D800022DB4FF480612846019EFFF727FD88B3E0
:100D9000A389206043F0800306F47046A381B6F572
:100DA000005F4FF48063C4E90403DED1B4F90E1090
:100DB000284600F07BF80028D7D0A38923F003034E
:100DC00043F00103A381D0E7B4F90C3013F0800F96
:100DD00014BF40264FF4806631462846FFF7FEFCDC
:100DE00040B1A389206043F08003C4E90406A381D5
:100DF00016B070BDB4F90C309A05B6D423F00303D5
:100E000004F1470243F002030121C4E90421A38154
:100E10002260AAE770B50C46B1F90E10002996B011
:100E200015461E460FDB6A4600F006FF00280ADB67
:100E3000019B03F47043A3F50053B3FA83F34FF41B
:100E400080625B0908E0A28912F0800F4FF0000376
:100E500014BF40224FF48062002033602A6016B035
:100E600070BD00BF0EB400B582B003AB816853F80B
:100E7000042B019300F072F802B05DF804EB03B0AC
:100E8000704700BF0FB400B5074983B004AB0868D2
:100E900053F8042B8168019300F060F803B05DF80B
:100EA00004EB04B0704700BF0000002038B5074DC8
:100EB0000022044608462A6003F06EF8431C00D066
:100EC00038BD2B68002BFBD0236038BDF801002013
:100ED0009368013B002B936011DA10B49469A3422C
:100EE00009DB0A2907D01368581C106019700846DE
:100EF0005DF8044B70475DF8044B00F073B913685C
:100F0000581C106019700846704700BF9BB1F8B5B7
:100F1000134406460F46541E5D1E01E0AC4208D045
:100F200014F8011F3A463046FFF7D2FF431CF5D1B3
:100F3000F8BD0020F8BD0020704700BF936810B5D1
:100F400014461BB918460023636010BD00F0F6F983
:100F50000023A3600023636010BD00BF2DE9F04FA4
:100F6000A1B08B4691461C46049018B1036A002B31
:100F700000F01C81BBF80C30180740F19580DBF8BD
:100F80001030002B00F090800023CA460D9343F2EE
:100F90002003ADF839309AF80030864E07940127C7
:100FA000002B79D0D14604E019F8013F002B00F066
:100FB0008580252BF8D1B9EB0A0840F0828099F89A
:100FC0000030002B68D000234FF0FF32CDE9092319
:100FD00009F1010908930B938DF863301E9305E026
:100FE000089A07FA03F31A430892A1464C460522D1
:100FF00014F8011B304600F0B3FBA246831B002807
:10100000EED1089BD90644BF20228DF8632099F8C1
:1010100000101A0744BF2B228DF863202A2966D1BD
:10102000079A1168043200290792C0F29A800B9146
:1010300099F801102E2970D05F4C0322204600F051
:101040008FFB38B1089B001B4022824013430AF1FA
:10105000010A08931AF8011B58488DF83810062227
:1010600000F07EFB002800F08280554B002B69D0F9
:1010700007AA0092534B04985A4608A9AFF3008080
:101080000390039B013307D00D9B039A13440D93E8
:101090009AF80030002B85D1BBF80C305B060AD4DF
:1010A0000D9821B0BDE8F08F04985946FFF796FCE3
:1010B00000283FF469AF4FF0FF30F2E7B9EB0A08C0
:1010C000EAD00AF1FF35CDF81490A946049D01E05D
:1010D000A0453ED94C465A4619F8011F2846FFF74D
:1010E000F7FE02340130A4EB0A04F1D1D4E7A1F1F8
:1010F0003002092A88BFCA469CD80B9B00E0013405
:10110000217803EB830302EB4303A1F13002092AA8
:10111000F5D92E290B93A2468ED19AF801102A29CF
:101120002FD1079B9AF802101A6809920433002AFB
:101130000AF102000793B8BF4FF0FF338246B8BFF1
:10114000099379E7079B073323F0070308330793D5
:101150009AE70D99DDF81490414499F800300D910B
:101160002FE7494243F002030B91089360E707AA77
:101170000092144B04985A4608A900F01BFC0390F7
:101180007FE7A1F130020023092A09930AF1010A3D
:101190003FF652AF1AF8011F03EB830302EB430340
:1011A000A1F13002092AF5D9099345E7FFF79EF925
:1011B000E0E600BFD8490008E0490008E44900081B
:1011C000000000000D0F000810B4054C84461346C3
:1011D00020685DF8044B0A466146FFF7BFBE00BFBA
:1011E00000000020F8B50D461446064610B1036A0B
:1011F000002B37D0A389A269A2601A0719D52369E9
:10120000BBB122686169D31AEDB299422F4620DD45
:101210000133A1680139A160511C21601570626918
:101220009A420DD0A389DB0701D50A2D08D0384694
:10123000F8BD21463046FFF7D1FB38B92369E0E716
:1012400021463046FFF75EFA0028F0D04FF0FF3716
:10125000EDE721463046FFF755FA0028F6D122681F
:101260000123D6E7FFF742F9C4E700BF10B4044CEE
:1012700003460A4620685DF8044B1946FFF7B2BFE3
:101280000000002038B5074D0022044608462A60B9
:1012900002F038FE431C00D038BD2B68002BFBD079
:1012A000236038BDF801002010B50C46B1F90E10CE
:1012B00000F0A6FA002803DB636D0344636510BDEC
:1012C000A38923F48053A38110BD00BF0020704781
:1012D0002DE9F0410C46B1F90C101F46CB0505462F
:1012E00016460BD421F48051A1813B46B4F90E106F
:1012F00032462846BDE8F04100F0CABCB4F90E10F1
:101300000223002200F0AEFCB4F90C10EAE700BFA3
:1013100010B50C46B1F90E1000F0A4FCB4F90C3075
:10132000421C0EBF23F4805343F480536065A381B5
:1013300010BD00BFB1F90E1000F080B99368002B0A
:1013400000F0F8802DE9F04FB1F90CC01CF0080F47
:1013500083B0904681460C4631D00B697BB31CF0BC
:101360000207D8F8006038D00027D4F828B0216AE6
:10137000DFF8C4A23D4655452B463A4628BF5346A2
:101380004846C5B1D847002840F3CA80D8F808308D
:101390001B1A07442D1AC8F80830002B00F0B6803D
:1013A00055452B46D4F828B0216A28BF53463A4603
:1013B0004846002DE6D1D6E900750836DBE7214620
:1013C0004846FFF70BFB002840F0AF80B4F90CC093
:1013D000D8F800601CF00207C6D11CF0010A63D1E6
:1013E0002368A168574618468B46002F58D01CF436
:1013F000007F00F0B580B9420A4600F2E1801CF49B
:10140000906F2FD0216962695D1A02EB420202EBF4
:10141000D2726B1C52103B44934292BF93469B4640
:101420001A461CF4806F00F0EA8011464846FFF728
:10143000D5F9002800F0F9802A4621690090FFF7CD
:10144000D9FBA289009B22F4906242F08002A28123
:101450005819ABEB0505C4F814B02361A5602060F2
:10146000BB463A465146009200F0FAF8A16823685C
:10147000009AA1EB0B011A443D46A16022600027AF
:10148000D8F808305B1BAA44C8F80830002B3DD0C0
:101490002368A168B4F90CC018468B46002FA6D16A
:1014A000D6E900A708369EE73846BB463D4600977A
:1014B000002D41D0002846D0009A2068A168D4E9C8
:1014C0000473AA4228BF2A46B84204D901EB030A92
:1014D000524500F38580934275DC216AA76A5A461B
:1014E0004846B847B0F1000A1ADD009BB3EB0A0387
:1014F00000930FD00120D8F80830A3EB0A03D3449F
:10150000A5EB0A05C8F80830002BD1D1002003B0A4
:10151000BDE8F08F21464846FFF7F4F80028EAD0EE
:10152000B4F90C3043F04003A3814FF0FF3003B017
:10153000BDE8F08F00207047756833460836002DEF
:10154000FAD0D3F800B02A460A21584600F008F92C
:10155000002867D00130A0EB0B0300931A46ACE7DC
:1015600022699A4214D36269BA4211D86FF00043DB
:10157000BB4228BF3B46A56A93FBF2F3216A02FBFC
:1015800003F348465246A847051EC9DD7F1B77E78F
:10159000B94228BF39460D4618460A46514600F062
:1015A0005FF8A1682368491B2B44A16023600029D0
:1015B000ECD121464846FFF7A5F80028E6D0AFE772
:1015C000BB463A464EE75946019200F049F8019A67
:1015D000A3689B1AA360236813442360924684E7A0
:1015E0005946524600F03CF8236853442360214694
:1015F0004846FFF787F800283FF477AF90E7484662
:1016000000F014F9034600287FF422AF2169484610
:10161000FFF764F9B4F90C300C22C9F8002023F06C
:1016200080037FE76A1C009247E70C22B4F90C3074
:10163000C9F8002076E700BF00FCFF7F38B5074DF2
:101640000022044608462A6002F09EFC431C00D09B
:1016500038BD2B68002BFBD0236038BDF80100207B
:1016600088420ED98B1883420BD900EB020C002A5A
:101670006ED0624613F801CD02F801CD9942F9D13E
:1016800070470F2A0FD8034602F1FF3C002A5FD0B3
:101690000CF1010C013B8C4411F8012B03F8012FD4
:1016A0006145F9D1704740EA01039B0751D1A2F18E
:1016B000100370B501F1200C23F00F0501F1100E9D
:1016C00000F11004AC441B095EF8105C44F8105C97
:1016D0005EF80C5C44F80C5C5EF8085C44F8085C4E
:1016E0005EF8045C44F8045C0EF1100EE64504F16B
:1016F0001004E9D1013312F00C0F01EB031102F0D9
:101700000F0400EB031328D0043C24F003064FEA37
:10171000940C1E441C1F8E465EF8045B44F8045F64
:10172000B442F9D10CF1010402F0030203EB84038B
:1017300001EB840102F1FF3C4AB10CF1010C013BC9
:101740008C4411F8012B03F8012F6145F9D170BDCC
:10175000704702F1FF3C03469AE72246EAE700BFE2
:1017600001F0FF01102A2BDB10F0070F08D010F852
:10177000013B013A8B422DD010F0070F42B3F6D156
:10178000F0B441EA012141EA014122F007047FF06F
:1017900000070023F0E80256083C85EA010586EAC6
:1017A000010685FA47F5A3FA87F586FA47F6A5FA02
:1017B00087F68EB9EED1F0BC01F0FF0102F007020E
:1017C00032B110F8013B013A83EA010313B1F8D1B9
:1017D0000020704701387047002D06BF354603389A
:1017E000073815F0010F07D1013015F4807F02BFD3
:1017F000013015F4C03F0130F0BC0138704700BF24
:1018000038B50C46084D8446114620461A4600233A
:101810002B60644602F09AFB431C00D038BD2B6855
:10182000002BFBD0236038BDF80100202DE9F041EA
:10183000144641B30AB306460D4600F03FFA84420F
:10184000074602D8B4EB500F13D821463046FEF7B6
:10185000C5FF804650B1BC422246294628BF3A46C1
:10186000FFF7C8F929463046FFF738F84046BDE88B
:10187000F081A8464046BDE8F081A046FFF72EF86B
:101880004046BDE8F081BDE8F0411146FEF7A6BF35
:101890002DE9F84F92461F460A698B68DDF82890BB
:1018A0009A42B8BF1A46CAF8002091F843300C4655
:1018B000064613B10132CAF80020226891065FD5AE
:1018C000DAF800300233CAF80030226812F0060F4E
:1018D00011461DD1E1689942D8BF114618DD4FF07D
:1018E000000804F1190B05E0E568DAF80030ED1A9C
:1018F00045450CDD01235A4639463046C84701307C
:1019000008F10108F0D14FF0FF30BDE8F88F2168F1
:1019100094F84330003B18BF01238A060AD5E1182A
:101920005A1C302081F84300224494F8451082F874
:101930004310023304F1430239463046C8470130B0
:10194000E1D02368DAF80050216903F00603042B84
:10195000D4E902201BD08A4220DD4FF00008521A41
:1019600090441A34002501E0454517DA0123224648
:1019700039463046C847013005F10105F4D1C2E7C8
:1019800012F0060F0DD0003B18BF0123D2E7401B19
:101990008A4220EAE078E2DC0028E2DC0020BDE8B0
:1019A000F88FE168DAF800309942D8BF114696DC2A
:1019B000AEE700BF2DE9F047174684B00A7E0C9DC4
:1019C0000C460646984601F1430C002A35D0A2F198
:1019D0005803D9B2202969D8202B67D8DFE813F043
:1019E000E600660066006600660066006600660047
:1019F000660066006600AC00700066006600660067
:101A000066007000660066006600660021008300C4
:101A1000C60066006600B6006600830066006600C9
:101A2000EC002B6822686169181D286010061B688D
:101A300002D4520600F1E08019600023E1462361E0
:101A4000CDF800803B4603AA21463046FFF720FF31
:101A5000013020D023694A4639463046C04701301C
:101A600019D02368E068DDF80C909B0718D548452D
:101A700016DD002504F1190A04E0E068A0EB090373
:101A8000AB420DDD0123524639463046C047013096
:101A900005F10105F1D14FF0FF3004B0BDE8F0874A
:101AA0004845B8BF484604B0BDE8F08784F84220F6
:101AB000012004F142090023206184F84330BFE78C
:101AC0002A682368111D1806296002D4590600F1FE
:101AD00095801068014600286268C0F293805448DF
:101AE0004FF00A0E15E020682B6810F0800F53F8B5
:101AF000041B02D1400648BF89B26F2A4C482B60B4
:101B000014BF4FF00A0E4FF0080E0023626884F8ED
:101B10004330002AA26051DB236823F004032360D2
:101B200000294BD1002A7BD1E146BEF1080F56D0E7
:101B3000ACEB0903236183E72B681A6804332B603D
:101B400004F1420984F842200120B4E72B6862685E
:101B5000191D2960D3F8009000214846FFF700FEC8
:101B6000002863D0A0EB09006060A4E7236843F07D
:101B70002003236078222F4884F845202A6813F038
:101B8000800F52F8041B03D113F0400F18BF89B225
:101B90002A60DA0744BF43F02003236019B92368A1
:101BA00023F0200323604FF0100EAEE7582384F893
:101BB00045301F482368E1E72368DBE77546E146C7
:101BC000B1FBF5F305FB131A0A46AA4210F80A10F6
:101BD00009F8011D1946F3D2BEF1080FA8D12368F8
:101BE000DD07A5D5626823699A42A1DC302309F894
:101BF000013C09F1FF399BE719801EE7B2F900109B
:101C0000084668E72D20002AA26084F8430002DB22
:101C100023F0040323600A2505484942AE46CEE777
:101C2000037884F8423004F142097EE7606842E7B5
:101C3000EC490008004A000870B50C46084D034600
:101C40000026204611461C462E6002F0A0F9431CD7
:101C500000D070BD2B68002BFBD0236070BD00BF8F
:101C6000F801002038B50C46084D84461146204640
:101C70001A4600232B60644602F090F9431C00D002
:101C800038BD2B68002BFBD0236038BDF801002045
:101C900038B50C46084D8446114620461A460023A6
:101CA0002B60644602F062F9431C00D038BD2B68FB
:101CB000002BFBD0236038BDF801002051F8043C14
:101CC000181F002BBCBF0B58C018704753B94AB936
:101CD000002908BF00281CBF4FF0FF314FF0FF3034
:101CE00000F06AB9ADF1080C6DE904CE00F006F819
:101CF000DDF804E0DDE9022304B070472DE9F04788
:101D0000089D0E4604460F46002B4AD194468C454A
:101D1000B2FA82F260D942B1C2F12003974020FAB0
:101D200003F30CFA02FC1F4394404FEA1C4E1FFAC7
:101D30008CF6B7FBFEF1230C0EFB117743EA074349
:101D400001FB06F098420AD91CEB030301F1FF37AF
:101D500080F01581984240F21281023963441B1AC7
:101D6000A4B2B3FBFEF00EFB103344EA034400FBC5
:101D700006F6A6420AD91CEB040400F1FF3380F0FA
:101D80000081A64240F2FD806444023840EA0140EE
:101D9000A41B00211DB1D4400023C5E90043BDE8C8
:101DA000F0878B4205D90DB1C5E900010021084635
:101DB000F5E7B3FA83F1002946D1B34202D3824258
:101DC00000F2F580841A66EB030201201746002D0D
:101DD000E5D0C5E90047E2E7002A40F09380A1EB97
:101DE0000C034FEA1C471FFA8CFE0121B3FBF7F6E8
:101DF00007FB1630230C43EA00430EFB06F0984223
:101E000008D91CEB030306F1FF3802D2984200F216
:101E1000D08046461B1AA4B2B3FBF7F007FB103381
:101E200044EA03440EFB00FEA64508D91CEB04045B
:101E300000F1FF3302D2A64500F2B6801846A4EBAB
:101E40000E0440EA0640A5E7C1F120078B4022FAC4
:101E500007FC4CEA030C06FA01FE20FA07F426FA06
:101E600007F344EA0E0400FA01F84FEA1C404FEA77
:101E70001449B3FBF0FE1FFA8CF600FB1E3349EA4F
:101E800003430EFB06F9994502FA01F20BD91CEB4C
:101E900003030EF1FF3A80F08580994540F282807D
:101EA000AEF1020E6344A3EB0909A4B2B9FBF0F34F
:101EB00000FB139944EA094403FB06F6A64208D93D
:101EC0001CEB040403F1FF3068D2A64266D9023B42
:101ED000644443EA0E40A41BA0FB02E6B4427346EE
:101EE000B14652D34FD05DB1B8EB030264EB0904A5
:101EF00004FA07F722FA01F31F43CC40C5E9007446
:101F000000214CE7C2F1200120FA01F30CFA02FC97
:101F100026FA01F1964033434FEA1C471FFA8CFE24
:101F2000B1FBF7F007FB1016190C41EA064100FB64
:101F30000EF68E4204FA02F408D91CEB010100F1FE
:101F4000FF382DD28E422BD902386144891B9BB2B7
:101F5000B1FBF7F607FB161143EA014306FB0EF14E
:101F6000994208D91CEB030306F1FF3814D29942B9
:101F700012D9023E63445B1A46EA004136E739460D
:101F8000EDE6184602E7F045ADD2BEEB020366EB84
:101F90000C060138B146A6E74646ECE7034698E74B
:101FA0004046D3E7D6467EE76444023847E7084612
:101FB0000DE7023E63442DE7704700BF10B582B0C5
:101FC00004468DF807004FF0FF3301220DF10701A1
:101FD000024800F0C0FF204602B010BD08020020F9
:101FE00072B6FEE700B595B03022002108A8FEF7D2
:101FF000A5FA002303930493059306930793019393
:10200000194A116C41F080511164126C02F0805237
:102010000192019A029315490A6822F4404242F45F
:1020200000420A600A6802F440420292029A0222C6
:10203000089201220B9210220C920E9308A801F034
:1020400059F868B90F230393002104910591069173
:10205000079103A801F09EFA20B915B05DF804FBC2
:10206000FFF7BEFFFFF7BCFF0038024000700040E2
:1020700070B5ADF5846D01F0FBFEFFF7B3FF01F025
:102080008FFF02F013F802F08DF802F0B3F801F0C0
:10209000F3FF012211467A4801F031FE00F0A6FB61
:1020A000784B18680023022219468068FEF7F8FC76
:1020B00040F20722002186A8FEF740FA0A2001F02C
:1020C00003FF4FF40051704801F012FE0446014630
:1020D0006E48FEF7D7FE6E4E31786E48FEF7D2FEA0
:1020E0003378A3B306F58046012C32D000F022FAF3
:1020F0006948FEF709F902238DF80E304FF0FF33DF
:1021000001220DF10E01654800F025FF01238DF835
:102110000F305F4B1B78012B32D0002B44D160482D
:10212000FEF7B0FE01F04AFC0221032001F0D6FCCC
:102130000221042001F0D2FC0221052001F0CEFC96
:1021400001F054FC012000F041F9564D5AE0564E82
:10215000CAE7304600F0C6F850B131465348FEF7A2
:1021600091FE0A2001F0B0FE304600F0CBF886E088
:1021700031464F48FEF786FE642001F0A5FEFBE7DE
:102180004C48FEF77FFE01F019FC0221062001F009
:10219000A5FC0221072001F0A1FC01F027FC002092
:1021A00000F014F9404D2DE04348FEF76BFE29E0A6
:1021B0000B1F04A80344D3F807004B1E04AC2344B0
:1021C000DB7901930090DDF817303C48FEF75AFEAA
:1021D000294604A800F028F900283BD1BDF81030AA
:1021E0001D4429463648FEF74DFE4FF0FF330122CD
:1021F0000DF10F01294800F0AEFE78BB9DF81230BA
:10220000012B2FD040F207242246002104A8FEF71C
:1022100095F94FF0FF33224604A9204800F001FF52
:10222000BDF810104B1E9BB2B3F5007FEAD29DF8AB
:102230001220012AE6D80329BAD80029C8D04B1E9B
:1022400004A80344DB7900939DF817301D48FEF77E
:1022500019FEBDE71C48FEF715FEBFE71B48FEF759
:1022600053F8CBE71A48FEF74FF8094B197819488D
:10227000FEF708FE00F094F91748FEF703FEFEE7AC
:10228000000402400000002000080240044700084B
:102290000080000814470008A047000850020020F2
:1022A000CC47000800C000080000040834470008BC
:1022B00064470008B8470008E047000808480008DD
:1022C0009C480008544800088C480008B0480008A2
:1022D000C0480008D8480008F448000808B58047FE
:1022E000FFDE000010B5046821460548FEF7CAFD70
:1022F00004F16040B0F5C03F8CBF0020012010BD4C
:1023000034490008F8B506460568446872B64FF0CF
:10231000E0220023136153619361526802F00F0EB3
:102320000EF1010E0BE0264A03F120004FF0FF31C1
:1023300042F8201003F1600C42F82C100133734571
:10234000F1D3204F4FF000637B6001F04BFD01F0B3
:10235000F7F9BE60BFF34F8FBFF36F8F1A4B1A6848
:1023600022F480621A601A6822F400721A601A68F5
:1023700042F480521A601A6822F480521A601A6875
:1023800042F400621A601A6822F400621A601A6845
:1023900042F400721A601A6842F480621A600023E4
:1023A00083F31488BFF36F8FBFF36F8F85F30888B3
:1023B00083F3118883F3138862B62046FFF78EFFFC
:1023C00000E100E000ED00E0003C024010B582B00A
:1023D00000248DF80440011B18BF01218DF8041062
:1023E0000F48FEF74FFD01F0E9FA0221084601F01F
:1023F00075FB002C06DD0B48FEF744FD01F0F6FAF4
:1024000002B010BDA10001AB53F82420002301F15C
:10241000006101F50041022001F022FB0134E8E7F0
:10242000404900085C49000802880AB90120704749
:102430002DE9F04383B00F46C51D96084FEA860983
:1024400002F0030801F0BAFA0024B44210D255F8A1
:102450002420002307EB8401022001F001FB08B9CE
:102460000134F2E701F0C2FA012003B0BDE8F083C5
:10247000B8F1000F10D04FF0FF330193424605EB47
:10248000090101A8FEF7B6FB019A002309EB070139
:10249000022001F0E5FA18B901F0A8FA0020E4E7FB
:1024A00001F0A4FA0120E0E7642800D87047642016
:1024B000FCE7000000B583B0064B5B780022009279
:1024C000463340F23F1246212D2000F04DFA03B072
:1024D0005DF804FB6400002000B583B04FF6FF7385
:1024E000009374234FF49B7264210A2000F0CEFA0B
:1024F00003B05DF804FB000000B583B0FFF7D4FF24
:1025000040F22B1303FB00F0094B83FB0023C2179F
:10251000C2EB631292B212B903B05DF804FB4FF440
:10252000FC6300930F2365210B2000F085FBF3E78C
:102530001F85EB5110B584B0002000F029F9134B32
:102540000024029440F2FF7201925A6800921B68C4
:102550000F4A0A21084600F02DFB0E4B02944FF65D
:10256000FF7201925A6800921B680B4A2D210A20C3
:1025700000F020FB094B1C70FFF79CFFFFF7ACFF3E
:102580002046FFF7B9FF04B010BD00BF5C0000207B
:10259000784900086400002088490008FC010020F8
:1025A00010B584B0002000F0F3F80E4B0024029424
:1025B0004FF4FC6201925A6800921B680A4A3C215F
:1025C0000A2000F0F7FA094B02944FF6FF720192CD
:1025D0005A6800921B68064A5A210A2000F0EAFA5B
:1025E00004B010BD5C0000209C490008640000207D
:1025F000AC49000810B582B08DF807000C4C0022E1
:102600001021204601F07BFB00222021204601F012
:1026100076FB4FF0FF3301220DF10701054801F071
:1026200054FF01221021204601F069FB02B010BDC9
:1026300000080240A002002010B582B08DF807000B
:102640000C4C00221021204601F059FB01222021D0
:10265000204601F054FB4FF0FF3301220DF107013A
:10266000054801F032FF01221021204601F047FB0E
:1026700002B010BD00080240A002002070B506465E
:102680000D46114C00221021204601F038FB01229A
:102690002021204601F033FB0EE04FF6FF74AC42E0
:1026A00028BF2C46A4B24FF0FF33224631460748DC
:1026B00001F00BFF26442D1B002DEED1012210212D
:1026C000014801F01CFB70BD00080240A002002080
:1026D0002DE9F04182B006460D4617461C46DFF84C
:1026E000748000221021404601F009FB2335ADB271
:1026F0002334A4B22A20FFF77DFF330A8DF804307B
:102700008DF805603B0A8DF806308DF807700421BE
:102710000DEB0100FFF7B2FF2B20FFF76BFF2B0A39
:102720008DF804308DF80550230A8DF806308DF8A9
:10273000074004210DEB0100FFF7A0FF2C20FFF75D
:1027400059FF01221021404601F0D9FA02B0BDE83C
:10275000F08100BF0008024010B504463620FFF7A4
:1027600049FF032C06D8DFE804F002060A0EC02059
:10277000FFF762FF10BDA020FFF75EFFFAE7002021
:10278000FFF75AFFF6E76020FFF756FFF2E7000079
:1027900070B582B00546A92340F23F1200210846D9
:1027A000FFF796FF002210210F4801F0A8FA00263B
:1027B0000EE02B0A8DF804308DF80550022101A897
:1027C000FFF75CFF0134A4B2A92CF2D90136B6B2EE
:1027D000B6F5A07F01D20024F6E7012210210248BD
:1027E00001F08DFA02B070BD0008024010B584B04F
:1027F0000A2001F069FB454C00220221204601F02D
:102800007EFA0A2001F060FB01220221204601F03D
:1028100076FA142001F058FB3A20FFF7EBFE552022
:10282000FFF70AFFB220FFF7E5FE394B93E80300FC
:1028300000908DF8041005216846FFF71FFF012066
:10284000FFF78AFFB720FFF7D5FE3520FFF7F4FE2C
:10285000BB20FFF7CFFE1920FFF7EEFEC020FFF7E9
:10286000C9FE2C20FFF7E8FEC220FFF7C3FE0120BF
:10287000FFF7E2FEC320FFF7BDFE1220FFF7DCFEEC
:10288000C420FFF7B7FE2020FFF7D6FEC620FFF7D3
:10289000B1FE0F20FFF7D0FED020FFF7ABFEA42043
:1028A000FFF7CAFEA120FFF7C7FEE020FFF7A2FE58
:1028B000184BEC460FCBACE80700ACF800300E210B
:1028C0006846FFF7DBFEE120FFF794FE124BEC4673
:1028D0000FCBACE80700ACF800300E216846FFF7DC
:1028E000CDFE2120FFF786FE1120FFF783FE132087
:1028F000FFF780FE2920FFF77DFE322001F0E4FA89
:102900000020FFF745FF04B010BD00BF00040240E7
:10291000FC460008B8490008C8490008B0F5A07F87
:102920001FD210B582B01446A92901D902B010BD3A
:102930000B460246FFF7CCFE230A8DF804308DF8D3
:102940000540084C00221021204601F0D8F9022150
:1029500001A8FFF793FE01221021204601F0CFF9D4
:10296000E4E77047000802402DE9F04383B0BDF86A
:102970002850B2F5A07F05D281460F4616469846EC
:10298000A92B02D903B0BDE8F08300221021124820
:1029900001F0B5F94346324639464846FFF798FEFE
:1029A0000FE04FEA152C8DF804C08DF80550022178
:1029B00001A8FFF763FE0134A4B2B442F1D9013794
:1029C000BFB2474501D84C46F7E701221021024823
:1029D00001F095F9D6E700BF000802402DE9F04F5D
:1029E00083B08B4615461E46BDF830805A1A82EADF
:1029F000E279A9EBE279291A81EAE17AAAEBE17A94
:102A0000D14504DC2E461D465B4683461846B34539
:102A100005D82B460546184633465E469B46ABEB2B
:102A20000604A3B20093471B002FB8BF7F42C4F334
:102A3000C03303FA84F46410854220D34FF0FF338F
:102A400001930BE0424629463046FFF767FFE41B3F
:102A5000A3B224B2002C0BDB0136B6B25E4511D80E
:102A6000D145EFDD424631462846FFF757FFEEE7F6
:102A7000019A1544ADB2009A13441CB2ECE701234D
:102A80000193EBE703B0BDE8F08F00002DE9F043C0
:102A900083B007460D4614461E46BDF82880DFF871
:102AA0005C9000221021484601F029F9CDF8008001
:102AB0002B46224629463846FFF790FFCDF8008086
:102AC00033463A4629463846FFF788FFCDF800805E
:102AD0003346224631463846FFF780FFCDF8008066
:102AE0003346224629462046FFF778FF012210216F
:102AF000484601F004F903B0BDE8F0830008024045
:102B000082B02DE9F04F83B004460E4693460D93F4
:102B1000BDF83C80BDF8407000221021244801F02F
:102B2000EEF89DF834502A1992B29DF835A00AEBC0
:102B300006039BB2013B013A9BB292B2314620465A
:102B4000FFF7C6FD4FF000091DE03B0A8DF8043089
:102B50008DF80570022101A8FFF790FD0134A54210
:102B60000FD906FA04F313F4004FEED04FEA1823FE
:102B70008DF804308DF80580022101A8FFF77EFD55
:102B8000ECE709F10109CA4508D9ABF120030AFBBA
:102B900003930E9A32F813600024E0E7012210211B
:102BA000034801F0ACF803B0BDE8F04F02B0704745
:102BB0000008024082B02DE9F04385B006460D467C
:102BC00017460D93BDF83C90BDF8408000221021BF
:102BD000184801F094F810E0013700260DE0CDF818
:102BE0000880CDF804900E9B00930D9B294630463B
:102BF000FFF786FF3444A6B201373A7882B19DF8D8
:102C000034403319B3F5A07FE9DB9DF835301D441E
:102C1000ADB22B44A92B03DC202ADDD00026DEE751
:102C200001221021034801F06AF805B0BDE8F04325
:102C300002B07047000802402DE9F04383B005461A
:102C40000F4690461E46BDF82890002210211848D5
:102C500001F055F8B5F5A07F26D2A92F24D805EBB1
:102C60000803B3F5A07F03DBC5F5A0781FFA88F849
:102C7000BB19A92B02DDC7F1AA06B6B200240CE0ED
:102C8000E11989B208EB0502CDF800900B4692B22B
:102C90002846FFF7A3FE0134E4B2B442F0D9012282
:102CA0001021034801F02BF803B0BDE8F08300BF0A
:102CB00000080240FEE7FEE7FEE7FEE7FEE770479A
:102CC0007047704708B501F0EDF808BD82B00021EB
:102CD00000910B4B5A6C42F480425A645A6C02F4D5
:102CE00080420092009A01911A6C42F080521A645C
:102CF0001B6C03F080530193019B02B0704700BF2F
:102D000000380240026802F10C0353E8003F23F44C
:102D100090730C3242E800310029F3D1026802F1CD
:102D2000140353E8003F23F00103143242E800315A
:102D30000029F3D1036B012B05D0202380F842300A
:102D4000002303637047026802F10C0353E8003F5D
:102D500023F010030C3242E800310029F3D1ECE7F4
:102D600010B504460268136923F44053C1680B434D
:102D70001361836802691A4343691A43C3691A439A
:102D80000168CB6823F4164323F00C031343CB6094
:102D90000268536923F4407381690B4353610368EC
:102DA000314A934206D002F58062934202D000F08D
:102DB000A7FC01E000F0B4FCE369B3F5004F29D0B3
:102DC0000021031849411B1841F10001C90041EAE3
:102DD0005371DB00181863684FEA83024FEA93735C
:102DE00041F10001FEF772FF204AA2FB00314909C0
:102DF000642303FB11031B013233A2FB03235B0992
:102E000003F0F00202EB011203F00F0321681344F8
:102E10008B6010BD0023021843EB0301121841F12F
:102E20000001C90041EA5271D200101841F10001BD
:102E3000626892185B41FEF749FF0C4AA2FB003121
:102E40004909642303FB1103DB003233A2FB032394
:102E50005B095A0002F4F87202EB011203F0070357
:102E6000216813448B60D4E7001001401F85EB51AB
:102E70002DE9F04383B005460E4617469946DDF826
:102E800028802B681C6836EA04040CBF0124002447
:102E9000BC4228D1B8F1FF3FF3D001F00FF8A0EB0E
:102EA0000900404523D8B8F1000F22D02B68DA681A
:102EB00012F0040FE5D0802EE3D0402EE1D01A6846
:102EC00012F0080FDDD0002401941A6801925B68AB
:102ED0000193019B2846FFF715FF08236B6485F8D3
:102EE0004040012000E0002003B0BDE8F083032053
:102EF000FAE70320F8E760B310B5044690F84130D4
:102F000013B3242384F841302268D36823F4005398
:102F1000D3602046FFF724FF2268136923F490430F
:102F200013612268536923F02A0353612268D3682E
:102F300043F40053D36000206064202384F84130C0
:102F400084F84230606310BD80F8403001F0C8F86A
:102F5000D7E7012070472DE9F04182B01E4690F876
:102F60004130DBB2202B56D104460D469046002955
:102F700055D00AB901204FE000234364212380F893
:102F8000413000F09BFF0746A4F82480A4F8268077
:102F9000A368B3F5805F02D04FF0000814E0236906
:102FA0002BB34FF000080FE0202384F841300320BA
:102FB00032E038F8023B2268C3F308035360E28C26
:102FC00092B2013A92B2E284E38C9BB293B1009642
:102FD0003B46002280212046FFF74AFF0028E3D12C
:102FE000002DE6D015F8012B23685A60E7E7A846C4
:102FF0000025E9E700963B46002240212046FFF7E6
:1030000037FF18B9202384F8413005E0202384F8E5
:103010004130032000E0022002B0BDE8F081012031
:10302000FAE72DE9F04182B01E4690F84230DBB25B
:10303000202B59D104460D469046002958D00AB994
:10304000012052E000234364222280F842200363DF
:1030500000F034FF0746A4F82C80A4F82E80A36863
:10306000B3F5805F02D04FF000081CE0236913B174
:103070004FF0000817E0A846002514E0202384F84C
:103080004230032031E023685B68C3F3080328F86B
:10309000023B03E023685B682B700135E28D92B23E
:1030A000013A92B2E285E38D9BB2C3B100963B46F2
:1030B000002220212046FFF7DBFE0028DED1002D74
:1030C000E1D0A368B3F5805FE4D013B92369002B86
:1030D000E0D023685B6803F07F032B70DDE72023DB
:1030E00084F84230002000E0022002B0BDE8F08108
:1030F0000120FAE7002800F0E08170B582B00446B4
:10310000036813F0010F3BD09F4B9B6803F00C0347
:10311000042B2CD09C4B9B6803F00C03082B21D074
:103120006368B3F5803F4FD0B3F5A02F52D0964BD4
:103130001A6822F480321A601A6822F480221A6017
:103140006368002B50D000F0B9FE05468E4B1B681B
:1031500013F4003F14D100F0B1FE401B6428F5D9F0
:103160000320B1E1884B5B6813F4800FD8D0864B05
:103170001B6813F4003F03D06368002B00F09F81AD
:10318000236813F0020F54D07F4B9B6813F00C0F91
:103190003ED07D4B9B6803F00C03082B33D0E368D3
:1031A000002B68D0794B01221A6000F087FE05469B
:1031B000754B1B6813F0020F54D100F07FFE401BCB
:1031C0000228F5D903207FE16F4A136843F4803366
:1031D0001360B5E76C4B1A6842F480221A601A68D3
:1031E00042F480321A60ABE700F068FE0546664B99
:1031F0001B6813F4003FC3D000F060FE401B64283E
:10320000F5D9032060E1604B5B6813F4800FC6D1F1
:103210005D4B1B6813F0020F03D0E368012B40F0F5
:103220005081594A136823F0F803216943EAC10326
:103230001360236813F0080F42D063696BB3534BDC
:103240000122C3F8802E00F039FE05464E4B5B6F1D
:1032500013F0020F34D100F031FE401B0228F5D9E3
:10326000032031E1484A136823F0F803216943EA57
:10327000C1031360DDE7454B00221A6000F01EFE1B
:103280000546414B1B6813F0020FD2D000F016FE2A
:10329000401B0228F5D9032016E13C4B0022C3F85D
:1032A000802E00F00BFE0546374B5B6F13F0020FCC
:1032B00006D000F003FE401B0228F5D9032003E1ED
:1032C000236813F0040F77D02F4B1B6C13F0805F33
:1032D00033D1002301932C4B1A6C42F080521A64B4
:1032E0001B6C03F080530193019B0125284B1B6845
:1032F00013F4807F23D0A368012B34D0052B38D062
:10330000214B1A6F22F001021A671A6F22F0040291
:103310001A67A368002B3DD000F0D0FD06461A4B7B
:103320001B6F13F0020F46D100F0C8FD801B41F265
:1033300088339842F3D90320C6E00025D6E7144A23
:10334000136843F48073136000F0B8FD0646104B19
:103350001B6813F4807FCED100F0B0FD801B0228E3
:10336000F5D90320B0E0084A136F43F00103136757
:10337000CFE7054B1A6F42F004021A671A6F42F04A
:1033800001021A67C5E700BF00380240000047424B
:103390000070004000F092FD0646524B1B6F13F088
:1033A000020F08D000F08AFD801B41F2883398425A
:1033B000F3D9032088E0EDB9A369002B00F08380E6
:1033C000484A926802F00C02082A51D0022B17D00A
:1033D000454B00221A6600F071FD0446414B1B6804
:1033E00013F0007F42D000F069FD001B0228F5D9E0
:1033F000032069E03B4A136C23F080531364DBE73E
:10340000394B00221A6600F059FD0546354B1B6802
:1034100013F0007F06D000F051FD401B0228F5D9C3
:10342000032051E0E369226A1343626A43EA82138C
:10343000A26A5208013A43EA0243E26A43EA02639B
:10344000284A5360284B01221A6600F037FD0446D3
:10345000244B1B6813F0007F06D100F02FFD001BEA
:103460000228F5D903202FE000202DE000202BE0DA
:10347000012B2BD01B4B5B6803F48001E269914266
:1034800026D103F03F02216A8A4223D1616A47F6BE
:10349000C0721A40B2EB811F1ED103F44031A26A00
:1034A0005208013AB1EB024F18D103F07063E26A9F
:1034B000B3EB026F14D1002006E001207047012019
:1034C00002E0012000E0002002B070BD0120FBE717
:1034D0000120F9E70120F7E70120F5E70120F3E7F4
:1034E0000120F1E7003802400000474208B5264BB2
:1034F0009B6803F00C03042B41D0082B41D1224BD5
:103500005A6802F03F025B6813F4800F12D01E4B22
:103510005968C1F388111D480023A1FB0001FEF783
:10352000D5FB194B5B68C3F3014301335B00B0FB70
:10353000F3F008BD144B5868C0F388104FEA401CE4
:10354000BCEB000C6EEB0E0E4FEA8E1343EA9C634D
:103550004FEA8C11B1EB0C0163EB0E03DB0043EA85
:103560005173C90011EB000C43F1000399020023D1
:103570004FEA8C2041EA9C51FEF7A8FBD1E70348B3
:10358000D7E70348D5E700BF0038024040787D0107
:103590000024F400002800F09B8070B50D4604461E
:1035A0004F4B1B6803F007038B4208D2CBB24C4A47
:1035B0001370136803F007038B4240F08B8023687D
:1035C00013F0020F17D013F0040F04D0454A93688C
:1035D00043F4E0539360236813F0080F04D0414A8A
:1035E000936843F4604393603E4A936823F0F0038A
:1035F000A1680B439360236813F0010F32D0636816
:10360000012B21D09A1E012A25D9364A126812F0C0
:10361000020F61D033498A6822F0030213438B60A2
:1036200000F04CFC06462F4B9B6803F00C036268CD
:10363000B3EB820F16D000F041FC801B41F28833BF
:103640009842F0D9032042E0264A126812F4003F63
:10365000E0D101203BE0234A126812F0007FD9D16B
:10366000012034E01E4B1B6803F00703AB4207D96F
:10367000EAB21B4B1A701B6803F00703AB422DD153
:10368000236813F0040F06D0164A936823F4E0531E
:10369000E1680B439360236813F0080F07D0114AC9
:1036A000936823F46043216943EAC1039360FFF701
:1036B0001DFF0C4B9B68C3F303130B4AD35CD8402C
:1036C0000A4B18600A4B186800F0ACFB002070BD74
:1036D000012070470120FAE70120F8E70120F6E712
:1036E000003C024000380240C46A000894000020F8
:1036F00090000020014B1868704700BF9400002024
:1037000008B5FFF7F7FF044B9B68C3F38223034A16
:10371000D35CD84008BD00BF00380240BC6A000836
:1037200008B5FFF7E7FF044B9B68C3F34233034A36
:10373000D35CD84008BD00BF00380240BC6A000816
:1037400038B500F0BBFB0446464A136843F001035A
:103750001360444B1B6813F0020F06D100F0AEFB60
:10376000001B0228F5D9032038BD3E4D2B6843F0DD
:1037700080032B6000F0A2FB04460023AB60394BB2
:103780009B6813F00C0F08D000F098FB001B41F26F
:1037900088339842F3D90320E6E700F08FFB044614
:1037A000304A136823F4502313602E4B1B6813F424
:1037B000003F06D000F082FB001B6428F5D90320EF
:1037C000D2E700F07BFB0446264A136823F080739F
:1037D0001360244B1B6813F0007F06D000F06EFBD3
:1037E000001B0228F5D90320BEE700F067FB044662
:1037F0001C4A136823F0806313601A4B1B6813F094
:10380000006F06D000F05AFB001B0228F5D90320F8
:10381000AAE7144B144A5A60144AC3F88420DA68A1
:1038200022F4F852DA60DA6822F40052DA60DA68D8
:1038300042F41F02DA60DA6842F40012DA605A6F6A
:1038400022F001025A675A6F42F080725A67084BA1
:10385000084A1A60084B186800F0E4FA002883D080
:10386000012081E7003802401030000400300020C1
:10387000940000200024F4009000002010B40A49B5
:103880000C6924F440740C610C6944F440740C61BC
:103890000C6944F001040C610260BFF36F8F436058
:1038A0005DF8044B704700BF003C0240074B1A69AB
:1038B00022F440721A611A6942F400721A611A699C
:1038C00042F001021A610160704700BF003C0240F3
:1038D000074B1A6922F440721A611A6942F4807225
:1038E0001A611A6942F001021A610180704700BF33
:1038F000003C0240064B1A6922F440721A611A69B0
:103900001A611A6942F001021A610170704700BF22
:10391000003C0240274BDB6813F0100F07D0264A0B
:10392000D36943F01003D361224B1022DA60214B9C
:10393000DB6813F0200F07D01F4AD36943F0080358
:10394000D3611C4B2022DA601A4BDB6813F0400F66
:1039500007D0194AD36943F00403D361154B4022C1
:10396000DA60144BDB6813F0800F07D0124AD3697A
:1039700043F00203D3610F4B8022DA600D4BDB680A
:1039800013F4807F08D00C4AD36943F00103D3615C
:10399000084B4FF48072DA60064BDB6813F0020FBD
:1039A00007D0054AD36943F02003D361014B0222BB
:1039B000DA607047003C02406C000020094B1B6934
:1039C000002B01DB00207047064B074A5A6002F1CA
:1039D00088325A601B69002B01DB002070470120F0
:1039E000704700BF003C024023016745034A13694A
:1039F00043F0004313610020704700BF003C0240C9
:103A000038B50446144B0022DA6100F057FA054637
:103A1000124BDB6813F4803F0AD0B4F1FF3FF7D0BC
:103A200024B100F04BFA401BA042F1D903200DE075
:103A30000A4BDB6813F0010F02D0084B0122DA6059
:103A4000064BDB6813F4F97F01D1002038BDFFF786
:103A500061FF0120FAE700BF6C000020003C02403B
:103A6000F8B516461B4A127E012A30D004460D4690
:103A70001F46184B01221A764CF25030FFF7C0FF58
:103A800090B9ACB1012C18D0022C1BD032463B4669
:103A90002846FFF7F3FE4CF25030FFF7B1FF0E4A15
:103AA000136923F0010313610A4B00221A76F8BD53
:103AB000F1B22846FFF71EFFEDE7B1B22846FFF747
:103AC00007FFE8E731462846FFF7F0FEE3E702206C
:103AD000EDE700BF6C000020003C0240012905D04A
:103AE000022906D039B14FF4407104E04FF48071DF
:103AF00001E04FF400710B4B1A6922F440721A6115
:103B00001A690A431A611A6922F0F8021A611A69DD
:103B100042EAC00040F0020018611A6942F48032A3
:103B20001A617047003C024000230F2B00F2D7803F
:103B300070B582B065E085684FEA430E032404FA4D
:103B40000EF425EA0405CC6804FA0EF42C438460D4
:103B5000446824EA02044A68C2F300129A402243ED
:103B600042605CE0DC08083450F8242003F00705CC
:103B7000AD004FF00F0E0EFA05FE22EA0E0E0A6996
:103B8000AA4042EA0E0240F824205CE0042200E051
:103B9000002202FA0EF22A430234514D45F8242045
:103BA000504A94686FEA0C0224EA0C054E6816F439
:103BB000801F01D04CEA04054A4CA560E46802EA83
:103BC00004054E6816F4001F01D04CEA0405454C6C
:103BD000E560646802EA04054E6816F4003F01D00F
:103BE0004CEA04053F4C6560246822404D6815F49A
:103BF000803F01D04CEA04023A4C226001330F2B83
:103C00006BD801229A400C6804EA020C32EA0404E0
:103C1000F4D14C6804F00304013C012C8BD94A68B0
:103C200002F00302032A09D0C4685D000322AA40FF
:103C300024EA02048A68AA402243C2604A6802F069
:103C40000302022A8ED004684FEA430E032202FACE
:103C50000EF224EA02044A6802F0030202FA0EF2AB
:103C6000224302604A6812F4403FC7D0002201920A
:103C70001D4A546C44F480445464526C02F48042F3
:103C80000192019A9C08A51C154A52F8255003F090
:103C9000030E4FEA8E0E0F2202FA0EF225EA0205FB
:103CA000124A90423FF474AF02F5806290420ED007
:103CB00002F5806290420CD002F5806290420AD0F8
:103CC00002F5806290423FF461AF072261E7012272
:103CD0005FE702225DE703225BE702B070BD704739
:103CE00000380140003C0140003802400000024022
:103CF0000369194201D001207047002070470AB1C2
:103D0000816170470904816170470000002808DB69
:103D10000901C9B200F1604000F5614080F800136C
:103D2000704700F00F000901C9B2014B19547047E8
:103D300014ED00E000B500F00700C0F1070CBCF185
:103D4000040F28BF4FF0040C031D062B0FD9C31E10
:103D50004FF0FF3E0EFA0CF021EA000199400EFAF6
:103D600003FE22EA0E0241EA02005DF804FB002392
:103D7000EEE70000074AD36823F4E0631B041B0C42
:103D8000000200F4E060034343F0BF6343F40033F8
:103D9000D360704700ED00E010B50446054BD868CD
:103DA000C0F30220FFF7C6FF01462046FFF7AEFF33
:103DB00010BD00BF00ED00E00138B0F1807F0BD2F4
:103DC0004FF0E0235861054AF02182F823100020CB
:103DD000986107221A6170470120704700ED00E0EA
:103DE0007047000010B50B4B0B4A1A6200241C628E
:103DF0000A4A5A625C620A4A1A611C6180225A614C
:103E00005C614FF0FF329A619C61FFF7E9FF204649
:103E100010BD00BF003802400FC8E2103179070022
:103E20009F10600010B504460E4B1A784FF47A7359
:103E3000B3FBF2F30C4A1068B0FBF3F0FFF7BCFFE2
:103E400068B90F2C01D901200AE0002221464FF069
:103E5000FF30FFF7A1FF054B1C60002000E00120B0
:103E600010BD00BF8C0000209400002090000020B6
:103E700008B50B4B1A6842F400721A601A6842F4D3
:103E800080621A601A6842F480721A600320FFF799
:103E900071FF0F20FFF7C6FFFEF718FF002008BDD7
:103EA000003C0240034A1168034B1B780B4413602B
:103EB000704700BF000200208C000020014B1868F2
:103EC000704700BF0002002038B50446FFF7F6FF38
:103ED0000546B4F1FF3F02D0044B1B781C44FFF7AA
:103EE000EDFF401BA042FAD338BD00BF8C0000207C
:103EF000034AD2F8883043F47003C2F88830704720
:103F000000ED00E010B503460C4A0D490D4800686D
:103F100040B10C4800680344521A934206D8094A3B
:103F2000136010BD0748084C0460F2E7FCF72CFC56
:103F30000C2303604FF0FF30F3E700BF0080012047
:103F40000004000004020020F802002070B50C46B6
:103F50001646002506E0AFF30080214601F8010B6C
:103F600001350C46B542F6DB304670BD70B50C46E7
:103F70001646002504E014F8010BFEF71FF8013582
:103F8000B542F8DB304670BD4FF0FF3070474FF45C
:103F900000534B600020704701207047002070479D
:103FA0002DE9F04188B0002403940494059406940C
:103FB000079400942C4B1A6B42F004021A631A6B9C
:103FC00002F004020092009A01941A6B42F001027E
:103FD0001A631A6B02F001020192019A02941A6BA1
:103FE00042F002021A631B6B03F002030293029B6E
:103FF000DFF88080224602214046FFF780FE1B4EFC
:10400000224630213046FFF77AFE194F224603211F
:104010003846FFF774FE4FF400530393049405945D
:1040200003A93046FFF780FD022303930125049581
:104030000594069403A94046FFF776FD30230393C9
:1040400004950594069403A93046FFF76DFD0323FC
:10405000039304950594069403A93846FFF764FD7D
:1040600008B0BDE8F08100BF0038024000080240FF
:10407000000402400000024008B50A480A4B0360F1
:104080004FF4E133436000238360C36003610C227B
:1040900042618361C361FEF72EFF00B908BDFDF7E1
:1040A0009FFFFBE7500200200010014008B50A48BE
:1040B0000A4B03604FF4E133436000238360C36025
:1040C00003610C2242618361C361FEF714FF00B9F2
:1040D00008BDFDF785FFFBE7080200200044004013
:1040E00000B58BB0002305930693079308930993BB
:1040F0000368284A934205D0274A934226D00BB042
:104100005DF804FB00210191244B5A6C42F010022F
:104110005A645A6C02F010020192019A02911A6BD1
:1041200042F001021A631B6B03F001030293029B2E
:104130004FF4C063059302230693032308930723D8
:10414000099305A91648FFF7EFFCD8E70021039172
:10415000124B1A6C42F400321A641A6C02F40032E8
:104160000392039A04911A6B42F001021A631B6BCB
:1041700003F001030493049B0C230593022306938D
:10418000032308930723099305A90548FFF7CCFCEF
:10419000B5E700BF00100140004400400038024075
:1041A0000000024008B50548054B036000F07AF8AE
:1041B00000B908BDFDF714FFFBE700BF980200201F
:1041C000003002400268094B9A4200D0704782B02A
:1041D00000230193064B1A6B42F480521A631B6B47
:1041E00003F480530193019B02B0704700300240FA
:1041F0000038024008B50D480D4B03604FF4827340
:10420000436000238360C360036143614FF4007225
:104210008261C3610362436283620A23C36200F066
:10422000F5F800B908BDFDF7DBFEFBE7A0020020B2
:104230000030014000B589B0002303930493059337
:10424000069307930268154B9A4202D009B05DF8B5
:1042500004FB0021019103F584335A6C42F480522F
:104260005A645A6C02F480520192019A02911A6BBC
:1042700042F001021A631B6B03F001030293029BDD
:10428000A023039302230493032306930523079398
:1042900003A90348FFF748FCD8E700BF00300140FE
:1042A0000000024058B110B5044643791BB1012308
:1042B0006371002010BD0371FFF784FFF7E7012051
:1042C000704700002DE9F04782B005468846174642
:1042D0001E46FFF7F3FD0A9B1B1A03EB0609FFF7C7
:1042E000EDFD8246284B1B68C3F3CB3309FB03F378
:1042F00001932B689C6838EA04040CBF0123002357
:10430000BB423DD0B6F1FF3FF3D0FFF7D7FDA0EBA6
:104310000A00484503D2019B73BB9946E9E72A6826
:10432000536823F0E00353606B68B3F5827F0BD0D2
:10433000AB6AB3F5005F14D0012385F85130002338
:1043400085F8503003201CE0AB68B3F5004F02D075
:10435000B3F5806FECD12A68136823F04003136033
:10436000E6E72A68136823F4005313602A68136889
:1043700043F400531360DFE7019B013B0193B8E76F
:10438000002002B0BDE8F0879400002070B584B032
:1043900004460D46164600920B4601220221FFF705
:1043A00091FFD0B9174B1B68174AA2FB03235B0D83
:1043B0004FF47A7202FB03F303936368B3F5827FD1
:1043C00011D0039B3BB1039B013B039323689B6884
:1043D00013F0800FF5D104B070BD636D43F020037E
:1043E00063650320F7E700962B46002280212046D4
:1043F000FFF768FF0028EED0636D43F0200363658C
:104400000320E8E794000020819F5E1600285AD020
:1044100010B50446436A33B94368B3F5827F05D0CB
:104420000023C36102E00023036143610023A36210
:1044300094F85130002B40D0022384F85130226888
:10444000136823F040031360636803F48273A26867
:1044500002F404421343E26802F400621343226947
:1044600002F002021343626902F001021343A269DF
:1044700002F400721343E26902F038021343226A25
:1044800002F080021343A26A02F40052216813432F
:104490000B60638B03F00403626A02F01002216870
:1044A00013434B602268D36923F40063D361002077
:1044B0006065012384F8513010BD84F850302046E7
:1044C000FFF7B8FEB8E7012070472DE9F04383B04D
:1044D0000446894690461D46FFF7F0FC94F851606B
:1044E000F6B2012E40F0CC800746B9F1000F00F083
:1044F000C880B8F1000F00F0C48094F85030012B50
:1045000000F0C380012384F85030032384F8513035
:1045100000236365C4F83090A4F83480A4F8368092
:10452000A363A387E38763642364A368B3F5004FA1
:104530001ED023681A6812F0400F03D11A6842F0A7
:1045400040021A60E368B3F5006F1CD0636813B1D2
:10455000B8F1010F5FD1226B236812781A73236BB5
:1045600001332363E38E9BB2013B9BB2E38652E0AF
:104570002268136823F0400313602268136843F431
:1045800080431360D5E7636813B1B8F1010F15D10B
:10459000226B23681288DA60236B02332363E38E75
:1045A0009BB2013B9BB2E38608E0FFF787FCC01B90
:1045B000A84202D3B5F1FF3F15D1A5B1E38E9BB25E
:1045C000002B42D023689A6812F0020FEDD0226BC4
:1045D0001288DA60236B02332363E38E9BB2013BC4
:1045E0009BB2E386EAE7012384F85130002384F884
:1045F0005030032645E0226B12781A73236B013387
:104600002363B4F836C01FFA8CFC0CF1FF3C1FFA90
:104610008CFCA4F836C0E38E9BB2B3B123689A68D1
:1046200012F0020FE7D1FFF749FCC01BA84202D3EA
:10463000B5F1FF3F01D1002DEDD1012384F85130B8
:10464000002384F8503003261BE03A4629462046D2
:10465000FFF79CFE08B120236365A36833B901937B
:104660002368DA6801929B680193019B012384F817
:104670005130002384F85030636D13B9002600E0F8
:104680000226304603B0BDE8F0830226F9E70000B9
:10469000DFF834D0FFF72CFC0C480D490D4A0023FD
:1046A00002E0D458C4500433C4188C42F9D30A4AE7
:1046B0000A4C002301E013600432A242FBD3FBF753
:1046C000B3FDFDF7D5FC70470080012000000020FD
:1046D00098000020E46A000898000020F8020020FA
:1046E000FEE70000F8B500BFF8BC08BC9E46704766
:0C46F000F8B500BFF8BC08BC9E4670473F
:1046FC000C0C003333000000504331333D256C75F6
:10470C000A0D0000000000006265666F726520698A
:10471C00662063757272656E7420736C6F743A20C8
:10472C0025640A0D000000004A756D70696E6720E3
:10473C00746F2061637469766520696D6167652E9D
:10474C002E2E20416464726573733A2030782530C4
:10475C00386C780D0A0000004E6F2076616C69642D
:10476C0020696D6167652E2053746179696E6720CD
:10477C00696E20626F6F746C6F616465722E2E2E81
:10478C0020416464726573733A2030782530386C3C
:10479C00780D0A0053746179696E6720696E206226
:1047AC006F6F746C6F616465722E0D005772697453
:1047BC00696E6720746F20534C4F545F420A0D0092
:1047CC0057726974696E6720746F20534C4F545F35
:1047DC00410A0D004552524F5220484153204F433D
:1047EC0043555245442120424342204953204E4FC9
:1047FC00542031204F522030000000006C656E3D7B
:10480C002564206C6173745F6368756E6B3D256401
:10481C002066697273745F776F72643D2530385807
:10482C00206C6173745F776F72643D25303858204B
:10483C00616E64206C61737420627974653D2530FF
:10484C0032780D0A000000006C656E3D2564206C0A
:10485C006173745F6368756E6B3D25642066697265
:10486C0073745F627974653D25303258206C6173C6
:10487C00745F627974653D253032580D0A00000072
:10488C0073756363657373202E2E2E0A0D00000062
:10489C0061646472657373203D2030782530386C08
:1048AC00580D0A007472616E736D697420657272B2
:1048BC006F7200004C617374206368756E6B2C20F2
:1048CC00627265616B696E672E00000061667465CB
:1048DC00722069662063757272656E7420736C6FDA
:1048EC00743A2025640A0D00557064617465206665
:1048FC00696E69736865642120486F6C6420427529
:10490C0074746F6E20647572696E6720526573657E
:10491C007420666F7220746865206E657720696DEF
:10492C00616765210000000030782530386C780A0A
:10493C000D000000696E73696465206263625F73C9
:10494C006C6F747377697463683A2025640A0D0080
:10495C0077726974652073756365737366756C2003
:10496C00696E206263620A0D00000000496E2042ED
:10497C006F6F746C6F61646572000000446F776ECA
:10498C006C6F6164696E6720496D6167650000003A
:10499C0055706461746520436F6D706C657465004F
:1049AC00526573657420626F61726400D0040D11DE
:1049BC00132B3F544C180D0B1F230000D0040C116B
:1049CC00132C3F44512F1F1F20230000232D302B6D
:1049DC0020000000686C4C00656667454647000087
:1049EC003031323334353637383941424344454619
:1049FC0000000000303132333435363738396162DB
:104A0C006364656600000000000000000000000008
:104A1C00000000000000000000000000000000008A
:104A2C00000000000000000000000000000000007A
:104A3C00000000000000000000000000E003E003A4
:104A4C00E003E003E003E003E003E003C003C00382
:104A5C00C001C001C001C001C00100000000000085
:104A6C00E003E003E0030000000000000000000091
:104A7C003C1E3C1E3C1E3C1E3C1E3C1E3C1E0000B4
:104A8C00000000000000000000000000000000001A
:104A9C00000000000000000000000000000000000A
:104AAC0000000000CE01CE03DE039E039C039C0796
:104ABC00FF3FFF7F3807380F780F780F780EFFFF16
:104ACC00FFFFF01EF01CE01CE03CE03DE039000074
:104ADC000000000000000000FC03FE0FEE1FE01EB3
:104AEC00E01EE01EE01EE01FE00FE007F003FC01FB
:104AFC00FE01FE01FE01FE01FE01FE01FE3DFC3F3A
:104B0C00F00FE001E001000000000000033E07F799
:104B1C008FE78EE79EE3BCE3B8E7F8E7F0F7E03FFA
:104B2C00C001FF03FF07F307F30FF31EF33CF33849
:104B3C00F3787FF03FE00000000000000000000070
:104B4C00E007F80F780F781F781F781F780FF00F99
:104B5C00E00F801FC37FC3FBE7F3F7F1F7F0FFF023
:104B6C007FF03EF87F7CFF3FEF1F0000000000004D
:104B7C0000000000E003E003E003E003E003C003F7
:104B8C00C001000000000000000000000000000058
:104B9C000000000000000000000000000000000009
:104BAC0000000000000000003F007C00F001E0016C
:104BBC00C003C00780078007800F000F000F000F95
:104BCC00000F000F000F800F80078007C007C00385
:104BDC00E001F0017C003F000F000000007E001F90
:104BEC00C007C003E001F001F000F000F80078000D
:104BFC0078007800780078007800F800F000F00079
:104C0C00F001E001C003C007001F007E0078000027
:104C1C00E003C003C001CE39FF3F7F3F2003700388
:104C2C00F807780F3C1F3806000000000000000059
:104C3C000000000000000000000000000000000068
:104C4C000000000000000000000000000000000058
:104C5C00C001C001C001C001C001C001C001FFFF03
:104C6C00FFFFC001C001C001C001C001C0010000B4
:104C7C000000000000000000000000000000000028
:104C8C000000000000000000000000000000000018
:104C9C0000000000000000000000E003E003E0035F
:104CAC00E003E001E001E001C0018003000000002E
:104CBC0000000000000000000000000000000000E8
:104CCC000000FE3FFE3F000000000000000000005E
:104CDC0000000000000000000000000000000000C8
:104CEC0000000000000000000000000000000000B8
:104CFC0000000000000000000000000000000000A8
:104D0C000000E003E003E003E0030000000000000B
:104D1C00000000000F000F001E001E003C003C00B5
:104D2C0078007800F000F000E001E001C003C0035F
:104D3C0080078007000F000F001E001E003C003C87
:104D4C000078007800F00000F007F80F7C1F3E3E62
:104D5C001E3C1F7C1F7C0F780F780F780F780F7814
:104D6C000F780F781F7C1F7C1E3C3E3E7C1FF80F7B
:104D7C00F00700000000000000000000F000F00749
:104D8C00F03FF03FF001F001F001F001F001F00113
:104D9C00F001F001F001F001F001F001F001F0017F
:104DAC00F001FF3FFF3F000000000000000000008A
:104DBC00E00FF83F7C3C3C003E003E003E003C00D7
:104DCC003C007C00F800F001E003C0078007000FF6
:104DDC00001E003E003CFE3FFE3F000000000000B5
:104DEC0000000000F00FF81F7C1C3E003E003E004F
:104DFC003C003C00F800F00FF80F7C003E001E0059
:104E0C001E001E001E003E007C1CF81FE01F000050
:104E1C0000000000000000007800F800F800F80125
:104E2C00F803F807F807780F781E781E783C787826
:104E3C007878FFFFFFFF7800780078007800780022
:104E4C00780000000000000000000000FC1FFC1FA8
:104E5C00FC1F001E001E001E001E001EE01FF81F7F
:104E6C00FC007C003E003E001E003E003E003C006C
:104E7C007C1CF81FE01F0000000000000000000078
:104E8C00FC01FE078E0F001F001E003E003C003C84
:104E9C00F83DFC3F3E7F1F7E0F3C0F3C0F3C0F3C10
:104EAC000F3E1F1E3E1FFC0FF00300000000000011
:104EBC0000000000FF3FFF3FFF3F0F001E001E00E1
:104ECC003C0038007800F000F000E001E001C00385
:104EDC00C0038007800F800F000F001F001F000011
:104EEC000000000000000000F807FC0F3E1F1E1E13
:104EFC001E3E1E3E1E1E3C1FF80FF007F80FFC1E38
:104F0C003E3E1F3C1F7C0F7C0F7C1F3C3E3FFC1F1A
:104F1C00F00700000000000000000000F007F80F90
:104F2C007C1E3E3C1E3C1F7C1F7C1F7C1F7C1F3C40
:104F3C003F3EFF1FEF071F001E001E003E003C00FF
:104F4C00F838F03FE01F00000000000000000000F7
:104F5C00000000000000000000000000E003E0037F
:104F6C00E003E0030000000000000000000000006F
:104F7C000000E003E003E003E00300000000000099
:104F8C000000000000000000000000000000000015
:104F9C00E003E003E003E003000000000000000079
:104FAC00000000000000E003E003E003E003E00188
:104FBC00E001E001C00380030000000000000000DD
:104FCC000000000003000F003F00FC00F003C00FC6
:104FDC00003F00FE003FC00FF003FC003F000F003D
:104FEC0003000000000000000000000000000000B2
:104FFC0000000000000000000000000000000000A5
:10500C00FFFFFFFF000000000000FFFFFFFF00009C
:10501C000000000000000000000000000000000084
:10502C0000000000000000000000000000E000F89C
:10503C00007E801FE007F8017E001F007E00F80153
:10504C00E007801F007E00F800E000000000000078
:10505C0000000000F01FFC3F3E381F381F381E00B8
:10506C001E003C007800F000E001C003C003C00744
:10507C00C007000000000000C007C007C007000008
:10508C000000000000000000F803FE0F1E1F0F3E82
:10509C007F3CFF78EF79C773C7F38FF38FF38FF3F0
:1050AC009FF39FF3FF73FF7BF779003C1C1FFC0FF2
:1050BC00F8030000000000000000000000000000E9
:1050CC000000E003E003F007F007F007780F780F1B
:1050DC007C0E3C1E3C1E3E3CFE3FFF3F1F780F7873
:1050EC000FF007F007F000000000000000000000C7
:1050FC00000000000000F83FFC3F3E3C1E3C1E3C04
:10510C001E3C3E3C7C3CF03FF83F7E3C1F3C1F3C31
:10511C000F3C0F3C1F3CFE3FF83F0000000000001E
:10512C0000000000000000000000FF01FF07871FC7
:10513C00003E003C007C0078007800780078007815
:10514C00007C007C003E003F831FFF07FF01000036
:10515C000000000000000000000000000000F07FD4
:10516C00FC7F7E781F781F780F780F780F780F7878
:10517C000F780F780F780F781F781E787E78F87F6D
:10518C00E07F0000000000000000000000000000B4
:10519C000000FF3FFF3F003E003E003E003E003E51
:1051AC00003EFE3FFE3F003E003E003E003E003E05
:1051BC00003EFF3FFF3F0000000000000000000029
:1051CC00000000000000FF1FFF1F001E001E001E3D
:1051DC00001E001E001EFF1FFF1F001E001E001ED3
:1051EC00001E001E001E001E001E0000000000001D
:1051FC0000000000000000000000FE03FF0F871FEE
:10520C00003E007C007C007800F800F87FF87FF806
:10521C000F780F7C0F7C0F3E8F1FFF0FFE030000DB
:10522C0000000000000000000000000000001F7CD7
:10523C001F7C1F7C1F7C1F7C1F7C1F7C1F7CFF7FA7
:10524C00FF7F1F7C1F7C1F7C1F7C1F7C1F7C1F7C97
:10525C001F7C0000000000000000000000000000A7
:10526C000000FF3FFF3FE003E003E003E003E00347
:10527C00E003E003E003E003E003E003E003E0030A
:10528C00E003FF3FFF3F00000000000000000000B3
:10529C00000000000000FC1FFC1F7C007C007C0058
:1052AC007C007C007C007C007C007C007C007C0012
:1052BC0078007800F838F03FC03F00000000000094
:1052CC00000000000000000000001F3C1E3C3C3CA5
:1052DC00783CF03CE03DE03FC03F803FC03FE03FCA
:1052EC00F03DF03C783C7C3C3E3C1F3C0F3C0000CD
:1052FC000000000000000000000000000000003E64
:10530C00003E003E003E003E003E003E003E003EA1
:10531C00003E003E003E003E003E003E003EFF3F91
:10532C00FF3F000000000000000000000000000033
:10533C0000001FF81FFC1FFC3FFE3FFE3FFE7FFFDF
:10534C0077FF77FFF7F7E7F7E7F3E7F3C7F307F034
:10535C0007F007F007F0000000000000000000005C
:10536C000000000000000F7C0F7C0F7E0F7F0F7F72
:10537C008F7F8F7FCF7FEF7BEF79FF79FF78FF787F
:10538C007F783F783F781F781F780000000000007E
:10539C0000000000000000000000F007FC1F3E3E73
:1053AC001F7C0F780F780FF80FF80FF80FF80FF825
:1053BC000FF80F780F781F7C3E3EFC1FF0070000A3
:1053CC000000000000000000000000000000FC3F96
:1053DC00FF3F1F3E0F3E0F3E0F3E0F3E1F3E3F3E18
:1053EC00FC3FF03F003E003E003E003E003E003ED3
:1053FC00003E000000000000000000000000000063
:10540C000000F007FC1F3E3E1F7C0F780F780FF852
:10541C000FF80FF80FF80FF80FF80F780F781F7CB4
:10542C003E3EFC1FF8077C003F000F00030000000D
:10543C00000000000000F03FFC3F7E3C3E3C1E3C68
:10544C001E3C3E3C3C3CFC3CF03FE03FF03DF83C1D
:10545C007C3C3E3C1E3C1F3C0F3C0000000000000E
:10546C0000000000000000000000FC07FE1F0E3EC4
:10547C00003C003C003C003EC01FF80FFE037F00C8
:10548C001F000F000F001F203E3CFC3FF01F0000D0
:10549C000000000000000000000000000000FFFF02
:1054AC00FFFFE003E003E003E003E003E003E003BD
:1054BC00E003E003E003E003E003E003E003E003C8
:1054CC00E0030000000000000000000000000000ED
:1054DC0000000F7C0F7C0F7C0F7C0F7C0F7C0F7CF3
:1054EC000F7C0F7C0F7C0F7C0F7C0F7C1E3C1E3CBA
:1054FC003E3EFC1FF0070000000000000000000012
:10550C0000000000000007F007F007F80F780F7C90
:10551C001E3C1E3C1E3E3C1E3C1F781F780FF80F95
:10552C00F007F007F007E003E003000000000000C4
:10553C000000000000000000000003E003F003F096
:10554C0007F0E7F3E7F3E7F3E773F77BF77FFF7F0A
:10555C007F7F7F7F7E7F7E3F3E3E3E3E3E3E000015
:10556C00000000000000000000000000000007F830
:10557C000F7C1E3E3E3E3C1FF80FF007E007E00399
:10558C00E003F007F80F7C0F7C1E3E3C1F780F7871
:10559C000FF0000000000000000000000000000000
:1055AC00000007F807780F7C1E3C1E3E3C1F780F4E
:1055BC00F80FF007E003E003E003E003E003E0038F
:1055CC00E003E003E0030000000000000000000026
:1055DC00000000000000FF7FFF7F0F001F003E0057
:1055EC007C00F800F000E001E003C007800F000F22
:1055FC00001E003E007CFF7FFF7F000000000000CB
:10560C0000000000FF0780078007800780078007E5
:10561C008007800780078007800780078007800746
:10562C008007800780078007800780078007800736
:10563C008007FF07FF07000000780078003C003C63
:10564C00001E001E000F000F80078007C003C00360
:10565C00E001E001F000F000780078003C003C0034
:10566C001E001E000F000F0007000000F07FF0006E
:10567C00F000F000F000F000F000F000F000F0009E
:10568C00F000F000F000F000F000F000F000F0008E
:10569C00F000F000F000F000F000F07FF07F000070
:1056AC00C000C001C001E003E003F007F007780779
:1056BC00780F380F3C1E3C1E1E3C1E3C0F380F78DA
:1056CC00077800000000000000000000000000004F
:1056DC0000000000000000000000000000000000BE
:1056EC0000000000000000000000000000000000AE
:1056FC000000000000000000000000000000FFFFA0
:10570C00FFFF000000000000F0000000000000009F
:10571C00000000000000000000000000000000007D
:10572C00000000000000000000000000000000006D
:10573C00000000000000000000000000000000005D
:10574C000000000000000000F80FFC3F7C3C3E0015
:10575C003E003E00FE07FE1F3E3E3E7C3E783E7CF9
:10576C007E7CFF3FCF1F0000000000000000000007
:10577C00003C003C003C003C003C003CF83DFE3F43
:10578C003E3F1F3E0F3C0F3C0F3C0F3C0F3C0F3C71
:10579C001F3C1E3C3E3FFC3FF03B00000000000065
:1057AC0000000000000000000000000000000000ED
:1057BC00FE03FF0F871F003E003E003C007C007C78
:1057CC00007C003C003E003E871FFF0FFE030000E4
:1057DC0000000000000000001F001F001F001F0041
:1057EC001F001F00FF07FF1F3F3E1F3C1F7C1F7C3D
:1057FC001F7C1F781F781F7C1F7C3F3C7F3EFF1F48
:10580C00DF0F00000000000000000000000000009E
:10581C000000000000000000F803FC0F3E1F1E3EBD
:10582C001F3C1F7CFF7FFF7F007C007C003C003E08
:10583C00071FFF0FFE030000000000000000000027
:10584C00FF01E103C003C007C007C007FF7FFF7F54
:10585C00C007C007C007C007C007C007C007C00704
:10586C00C007C007C007C007C00700000000000049
:10587C00000000000000000000000000000000001C
:10588C00EF07FF1F7F3E1F3C1F7C1F7C1F781F787C
:10589C001F781F7C1F7C3F3C7F3EFF1FDF0F1E00CD
:1058AC001E001E007C38F83F003C003C003C003CD5
:1058BC00003C003CFC3DFE3F9E3F1F3F1F3E1F3CFB
:1058CC001F3C1F3C1F3C1F3C1F3C1F3C1F3C1F3CF4
:1058DC001F3C00000000000000000000F001F0017F
:1058EC000000000000000000E07FE07FE001E0012C
:1058FC00E001E001E001E001E001E001E001E00194
:10590C00E001E001E00100000000000000000000E8
:10591C00F800F8000000000000000000F83FF83F1D
:10592C00F800F800F800F800F800F800F800F800AB
:10593C00F800F800F800F800F800F800F800F000A3
:10594C00F071E07F003C003C003C003C003C003C23
:10595C001F3C3E3C7C3CF83CF03DE03DC03FC03F32
:10596C00E03FF03DF83C7C3C3E3C1F3C1F3C0000C3
:10597C000000000000000000F07FF001F001F001D9
:10598C00F001F001F001F001F001F001F001F00183
:10599C00F001F001F001F001F001F001F001F00173
:1059AC00F0010000000000000000000000000000FA
:1059BC0000000000000000009EF7FFFFFFFFFFFF4C
:1059CC00E7FBE7F9C7F1C7F1C7F1C7F1C7F1C7F1B9
:1059DC00C7F1C7F1C7F10000000000000000000093
:1059EC00000000000000000000000000FC3DFE3F35
:1059FC009E3F1F3F1F3E1F3C1F3C1F3C1F3C1F3C3C
:105A0C001F3C1F3C1F3C1F3C1F3C000000000000C3
:105A1C00000000000000000000000000000000007A
:105A2C00F007FC1F3E3E1F3C1F7C0F780F780F7851
:105A3C000F780F781F7C1F3C3E3EFC1FF0070000C8
:105A4C00000000000000000000000000000000004A
:105A5C0000000000F83DFE3F3E3F1F3E0F3C0F3C58
:105A6C000F3C0F3C0F3C0F3C1F3C1E3E3E3FFC3F8F
:105A7C00F83F003C003C003C003C003C00000000B7
:105A8C000000000000000000EE07FE1F7E3E1E3CE2
:105A9C001E7C1E781E781E781E781E781E7C3E7C1E
:105AAC007E3EFE1FDE0F1E001E001E001E001E008E
:105ABC000000000000000000000000007F1FFF1F1E
:105ACC00E71FC71F871F001F001F001F001F001F9D
